{
  "contractName": "Distribuidor",
  "abi": [
    {
      "anonymous": false,
      "inputs": [
        {
          "indexed": false,
          "internalType": "uint256",
          "name": "idCaja",
          "type": "uint256"
        },
        {
          "indexed": false,
          "internalType": "uint256",
          "name": "idRecepcion",
          "type": "uint256"
        },
        {
          "indexed": false,
          "internalType": "uint256",
          "name": "tipocaja",
          "type": "uint256"
        }
      ],
      "name": "CajaRegistered",
      "type": "event"
    },
    {
      "anonymous": false,
      "inputs": [
        {
          "indexed": false,
          "internalType": "uint256",
          "name": "idCaja",
          "type": "uint256"
        },
        {
          "indexed": false,
          "internalType": "uint256",
          "name": "idCliente",
          "type": "uint256"
        }
      ],
      "name": "ClienteAsignado",
      "type": "event"
    },
    {
      "anonymous": false,
      "inputs": [
        {
          "indexed": false,
          "internalType": "uint256",
          "name": "idRecepcionCliente",
          "type": "uint256"
        },
        {
          "indexed": false,
          "internalType": "uint256",
          "name": "idCaja",
          "type": "uint256"
        },
        {
          "indexed": false,
          "internalType": "uint256",
          "name": "fecha",
          "type": "uint256"
        },
        {
          "indexed": false,
          "internalType": "int256",
          "name": "Latitude",
          "type": "int256"
        },
        {
          "indexed": false,
          "internalType": "int256",
          "name": "Longitude",
          "type": "int256"
        }
      ],
      "name": "RecepcionClienteRegistered",
      "type": "event"
    },
    {
      "anonymous": false,
      "inputs": [
        {
          "indexed": false,
          "internalType": "uint256",
          "name": "idRecepcion",
          "type": "uint256"
        },
        {
          "indexed": false,
          "internalType": "uint256",
          "name": "idEnvioPallet",
          "type": "uint256"
        },
        {
          "indexed": false,
          "internalType": "uint256",
          "name": "pesoEnvio",
          "type": "uint256"
        }
      ],
      "name": "RecepcionRegistered",
      "type": "event"
    },
    {
      "inputs": [],
      "name": "cajaCount",
      "outputs": [
        {
          "internalType": "uint256",
          "name": "",
          "type": "uint256"
        }
      ],
      "stateMutability": "view",
      "type": "function",
      "constant": true
    },
    {
      "inputs": [
        {
          "internalType": "uint256",
          "name": "",
          "type": "uint256"
        }
      ],
      "name": "cajas",
      "outputs": [
        {
          "internalType": "uint256",
          "name": "idCaja",
          "type": "uint256"
        },
        {
          "internalType": "uint256",
          "name": "idRecepcion",
          "type": "uint256"
        },
        {
          "internalType": "uint256",
          "name": "idCliente",
          "type": "uint256"
        },
        {
          "internalType": "uint256",
          "name": "tipocaja",
          "type": "uint256"
        }
      ],
      "stateMutability": "view",
      "type": "function",
      "constant": true
    },
    {
      "inputs": [],
      "name": "recepcionClienteCount",
      "outputs": [
        {
          "internalType": "uint256",
          "name": "",
          "type": "uint256"
        }
      ],
      "stateMutability": "view",
      "type": "function",
      "constant": true
    },
    {
      "inputs": [
        {
          "internalType": "uint256",
          "name": "",
          "type": "uint256"
        }
      ],
      "name": "recepcionClientes",
      "outputs": [
        {
          "internalType": "uint256",
          "name": "idRecepcionCliente",
          "type": "uint256"
        },
        {
          "internalType": "uint256",
          "name": "idCaja",
          "type": "uint256"
        },
        {
          "internalType": "uint256",
          "name": "fecha",
          "type": "uint256"
        },
        {
          "internalType": "int256",
          "name": "Latitude",
          "type": "int256"
        },
        {
          "internalType": "int256",
          "name": "Longitude",
          "type": "int256"
        }
      ],
      "stateMutability": "view",
      "type": "function",
      "constant": true
    },
    {
      "inputs": [],
      "name": "recepcionCount",
      "outputs": [
        {
          "internalType": "uint256",
          "name": "",
          "type": "uint256"
        }
      ],
      "stateMutability": "view",
      "type": "function",
      "constant": true
    },
    {
      "inputs": [
        {
          "internalType": "uint256",
          "name": "",
          "type": "uint256"
        }
      ],
      "name": "recepciones",
      "outputs": [
        {
          "internalType": "uint256",
          "name": "idRecepcion",
          "type": "uint256"
        },
        {
          "internalType": "uint256",
          "name": "idEnvioPallet",
          "type": "uint256"
        },
        {
          "internalType": "uint256",
          "name": "pesoEnvio",
          "type": "uint256"
        }
      ],
      "stateMutability": "view",
      "type": "function",
      "constant": true
    },
    {
      "inputs": [
        {
          "internalType": "uint256",
          "name": "_idRecepcion",
          "type": "uint256"
        },
        {
          "internalType": "uint256",
          "name": "_idEnvioPallet",
          "type": "uint256"
        },
        {
          "internalType": "uint256",
          "name": "_pesoEnvio",
          "type": "uint256"
        }
      ],
      "name": "registerRecepcion",
      "outputs": [],
      "stateMutability": "nonpayable",
      "type": "function"
    },
    {
      "inputs": [
        {
          "internalType": "uint256",
          "name": "_idCaja",
          "type": "uint256"
        },
        {
          "internalType": "uint256",
          "name": "_idRecepcion",
          "type": "uint256"
        },
        {
          "internalType": "uint256",
          "name": "_tipocaja",
          "type": "uint256"
        }
      ],
      "name": "registerCaja",
      "outputs": [],
      "stateMutability": "nonpayable",
      "type": "function"
    },
    {
      "inputs": [
        {
          "internalType": "uint256",
          "name": "_idCaja",
          "type": "uint256"
        },
        {
          "internalType": "uint256",
          "name": "_idCliente",
          "type": "uint256"
        }
      ],
      "name": "asignarClienteACaja",
      "outputs": [],
      "stateMutability": "nonpayable",
      "type": "function"
    },
    {
      "inputs": [
        {
          "internalType": "uint256",
          "name": "_idRecepcionCliente",
          "type": "uint256"
        },
        {
          "internalType": "uint256",
          "name": "_idCaja",
          "type": "uint256"
        },
        {
          "internalType": "uint256",
          "name": "_fecha",
          "type": "uint256"
        },
        {
          "internalType": "int256",
          "name": "_Latitude",
          "type": "int256"
        },
        {
          "internalType": "int256",
          "name": "_Longitude",
          "type": "int256"
        }
      ],
      "name": "registerRecepcionCliente",
      "outputs": [],
      "stateMutability": "nonpayable",
      "type": "function"
    }
  ],
  "bytecode": "0x608060405234801561001057600080fd5b50610ca9806100206000396000f3fe608060405234801561001057600080fd5b506004361061009e5760003560e01c8063ca75235311610066578063ca75235314610149578063d624b60d1461017c578063dc4a06ae146101ae578063f3f50b46146101ca578063f72dd736146101e85761009e565b80631d08b89d146100a357806375849197146100bf5780638e9733d7146100dd578063a82897fd146100f9578063bcbba6d714610115575b600080fd5b6100bd60048036038101906100b89190610795565b610206565b005b6100c7610311565b6040516100d49190610a95565b60405180910390f35b6100f760048036038101906100f29190610820565b610317565b005b610113600480360381019061010e91906107d1565b61043e565b005b61012f600480360381019061012a919061076c565b6105a8565b604051610140959493929190610b10565b60405180910390f35b610163600480360381019061015e919061076c565b6105de565b6040516101739493929190610b63565b60405180910390f35b6101966004803603810190610191919061076c565b61060e565b6040516101a593929190610ad9565b60405180910390f35b6101c860048036038101906101c391906107d1565b610638565b005b6101d2610736565b6040516101df9190610a95565b60405180910390f35b6101f061073c565b6040516101fd9190610a95565b60405180910390f35b600060016000848152602001908152602001600020600001541415610260576040517f08c379a000000000000000000000000000000000000000000000000000000000815260040161025790610a15565b60405180910390fd5b60006001600084815260200190815260200160002060020154146102b9576040517f08c379a00000000000000000000000000000000000000000000000000000000081526004016102b090610a75565b60405180910390fd5b8060016000848152602001908152602001600020600201819055507f047700dccdda471d805077321cce667df8650c01e50d92748f1b7ccd8a342df98282604051610305929190610ab0565b60405180910390a15050565b60045481565b600060016000868152602001908152602001600020600001541415610371576040517f08c379a000000000000000000000000000000000000000000000000000000000815260040161036890610a15565b60405180910390fd5b6040518060a0016040528086815260200185815260200184815260200183815260200182815250600260008781526020019081526020016000206000820151816000015560208201518160010155604082015181600201556060820151816003015560808201518160040155905050600560008154809291906103f390610bcd565b91905055507f9e83d4bac0284033a27dd48d9d0d88bd0753c12126ef6d59e14d6e5a9763ec4c858585858560405161042f959493929190610b10565b60405180910390a15050505050565b6000600160008581526020019081526020016000206000015414610497576040517f08c379a000000000000000000000000000000000000000000000000000000000815260040161048e90610a55565b60405180910390fd5b60008060008481526020019081526020016000206000015414156104f0576040517f08c379a00000000000000000000000000000000000000000000000000000000081526004016104e790610a35565b60405180910390fd5b6040518060800160405280848152602001838152602001600081526020018281525060016000858152602001908152602001600020600082015181600001556020820151816001015560408201518160020155606082015181600301559050506004600081548092919061056390610bcd565b91905055507fa206f48b4fc2fc7b9e7e94c7af8e9b6bc3ca2bb4f57c87034df6136b75f6fb6783838360405161059b93929190610ad9565b60405180910390a1505050565b60026020528060005260406000206000915090508060000154908060010154908060020154908060030154908060040154905085565b60016020528060005260406000206000915090508060000154908060010154908060020154908060030154905084565b60006020528060005260406000206000915090508060000154908060010154908060020154905083565b60008060008581526020019081526020016000206000015414610690576040517f08c379a0000000000000000000000000000000000000000000000000000000008152600401610687906109f5565b60405180910390fd5b604051806060016040528084815260200183815260200182815250600080858152602001908152602001600020600082015181600001556020820151816001015560408201518160020155905050600360008154809291906106f190610bcd565b91905055507f367391652e918d715e5ce02cbe01b020018243e074916a737870c133754aa4e983838360405161072993929190610ad9565b60405180910390a1505050565b60035481565b60055481565b60008135905061075181610c45565b92915050565b60008135905061076681610c5c565b92915050565b60006020828403121561077e57600080fd5b600061078c84828501610757565b91505092915050565b600080604083850312156107a857600080fd5b60006107b685828601610757565b92505060206107c785828601610757565b9150509250929050565b6000806000606084860312156107e657600080fd5b60006107f486828701610757565b935050602061080586828701610757565b925050604061081686828701610757565b9150509250925092565b600080600080600060a0868803121561083857600080fd5b600061084688828901610757565b955050602061085788828901610757565b945050604061086888828901610757565b935050606061087988828901610742565b925050608061088a88828901610742565b9150509295509295909350565b6108a081610bb9565b82525050565b60006108b3601783610ba8565b91507f526563657063696f6e20796120726567697374726164610000000000000000006000830152602082019050919050565b60006108f3601283610ba8565b91507f43616a61206e6f20656e636f6e747261646100000000000000000000000000006000830152602082019050919050565b6000610933601783610ba8565b91507f526563657063696f6e206e6f20656e636f6e74726164610000000000000000006000830152602082019050919050565b6000610973601283610ba8565b91507f43616a61207961207265676973747261646100000000000000000000000000006000830152602082019050919050565b60006109b3601f83610ba8565b91507f436c69656e746520796120617369676e61646f206120657374612063616a61006000830152602082019050919050565b6109ef81610bc3565b82525050565b60006020820190508181036000830152610a0e816108a6565b9050919050565b60006020820190508181036000830152610a2e816108e6565b9050919050565b60006020820190508181036000830152610a4e81610926565b9050919050565b60006020820190508181036000830152610a6e81610966565b9050919050565b60006020820190508181036000830152610a8e816109a6565b9050919050565b6000602082019050610aaa60008301846109e6565b92915050565b6000604082019050610ac560008301856109e6565b610ad260208301846109e6565b9392505050565b6000606082019050610aee60008301866109e6565b610afb60208301856109e6565b610b0860408301846109e6565b949350505050565b600060a082019050610b2560008301886109e6565b610b3260208301876109e6565b610b3f60408301866109e6565b610b4c6060830185610897565b610b596080830184610897565b9695505050505050565b6000608082019050610b7860008301876109e6565b610b8560208301866109e6565b610b9260408301856109e6565b610b9f60608301846109e6565b95945050505050565b600082825260208201905092915050565b6000819050919050565b6000819050919050565b6000610bd882610bc3565b91507fffffffffffffffffffffffffffffffffffffffffffffffffffffffffffffffff821415610c0b57610c0a610c16565b5b600182019050919050565b7f4e487b7100000000000000000000000000000000000000000000000000000000600052601160045260246000fd5b610c4e81610bb9565b8114610c5957600080fd5b50565b610c6581610bc3565b8114610c7057600080fd5b5056fea264697066735822122046d4e7ead694a87652d10a6afc8e5a2fb49505c44c70fc1d03b0311b28186d3164736f6c63430008000033",
  "immutableReferences": {},
  "source": "// SPDX-License-Identifier: MIT\r\npragma solidity ^0.8.0;\r\n\r\ncontract Distribuidor {\r\n    struct Recepcion {\r\n        uint256 idRecepcion;         // ID de recepcin\r\n        uint256 idEnvioPallet;       // ID del envo de pallet\r\n        uint256 pesoEnvio;           // Peso del envo\r\n    }\r\n\r\n    struct Caja {\r\n        uint256 idCaja;              // ID de la caja\r\n        uint256 idRecepcion;         // ID de recepcin al cual pertenece la caja\r\n        uint256 idCliente;           // ID del cliente, inicia sin asignacin\r\n        uint256 tipocaja;           // Peso de la caja\r\n    }\r\n\r\n    struct RecepcionCliente {\r\n        uint256 idRecepcionCliente;  // ID de recepcin del cliente\r\n        uint256 idCaja;              // ID de la caja asociada\r\n        uint256 fecha;               // Fecha de recepcin (timestamp)\r\n        int256 Latitude;             // Latitud, con 10 decimales\r\n        int256 Longitude;            // Longitud, con 10 decimales\r\n    }\r\n\r\n    mapping(uint256 => Recepcion) public recepciones;  // Mapeo de ID de recepcin a Recepcion\r\n    mapping(uint256 => Caja) public cajas;             // Mapeo de ID de caja a Caja\r\n    mapping(uint256 => RecepcionCliente) public recepcionClientes;  // Mapeo de ID de recepcin cliente a RecepcionCliente\r\n    uint256 public recepcionCount;    // Contador de recepciones\r\n    uint256 public cajaCount;         // Contador de cajas\r\n    uint256 public recepcionClienteCount;  // Contador de recepciones de clientes\r\n\r\n    // Eventos para registro y actualizacin\r\n    event RecepcionRegistered(uint256 idRecepcion, uint256 idEnvioPallet, uint256 pesoEnvio);\r\n    event CajaRegistered(uint256 idCaja, uint256 idRecepcion, uint256 tipocaja);\r\n    event ClienteAsignado(uint256 idCaja, uint256 idCliente);\r\n    event RecepcionClienteRegistered(uint256 idRecepcionCliente, uint256 idCaja, uint256 fecha, int256 Latitude, int256 Longitude);\r\n\r\n    // Funcin para registrar una nueva recepcin\r\n    function registerRecepcion(\r\n        uint256 _idRecepcion,\r\n        uint256 _idEnvioPallet,\r\n        uint256 _pesoEnvio\r\n    ) public {\r\n        require(recepciones[_idRecepcion].idRecepcion == 0, \"Recepcion ya registrada\");\r\n\r\n        // Crear y almacenar la nueva recepcin\r\n        recepciones[_idRecepcion] = Recepcion({\r\n            idRecepcion: _idRecepcion,\r\n            idEnvioPallet: _idEnvioPallet,\r\n            pesoEnvio: _pesoEnvio\r\n        });\r\n\r\n        recepcionCount++;\r\n\r\n        // Emitir el evento de registro\r\n        emit RecepcionRegistered(_idRecepcion, _idEnvioPallet, _pesoEnvio);\r\n    }\r\n\r\n    // Funcin para registrar una nueva caja en una recepcin especfica\r\n    function registerCaja(\r\n        uint256 _idCaja,\r\n        uint256 _idRecepcion,\r\n        uint256 _tipocaja\r\n    ) public {\r\n        require(cajas[_idCaja].idCaja == 0, \"Caja ya registrada\");\r\n        require(recepciones[_idRecepcion].idRecepcion != 0, \"Recepcion no encontrada\");\r\n\r\n        // Crear y almacenar la nueva caja\r\n        cajas[_idCaja] = Caja({\r\n            idCaja: _idCaja,\r\n            idRecepcion: _idRecepcion,\r\n            idCliente: 0,   // Inicia sin cliente asignado\r\n            tipocaja: _tipocaja\r\n        });\r\n\r\n        cajaCount++;\r\n\r\n        // Emitir el evento de registro\r\n        \r\n        emit CajaRegistered(_idCaja, _idRecepcion, _tipocaja);\r\n    }\r\n\r\n    // Funcin para asignar un cliente a una caja especfica\r\n    function asignarClienteACaja(uint256 _idCaja, uint256 _idCliente) public {\r\n        require(cajas[_idCaja].idCaja != 0, \"Caja no encontrada\");\r\n        require(cajas[_idCaja].idCliente == 0, \"Cliente ya asignado a esta caja\");\r\n\r\n        // Asignar el cliente a la caja\r\n        cajas[_idCaja].idCliente = _idCliente;\r\n\r\n        // Emitir el evento de asignacin de cliente\r\n        emit ClienteAsignado(_idCaja, _idCliente);\r\n    }\r\n\r\n    // Funcin para registrar la recepcin de una caja por parte de un cliente\r\n    function registerRecepcionCliente(\r\n        uint256 _idRecepcionCliente,\r\n        uint256 _idCaja,\r\n        uint256 _fecha,\r\n        int256 _Latitude,\r\n        int256 _Longitude\r\n    ) public {\r\n        require(cajas[_idCaja].idCaja != 0, \"Caja no encontrada\");\r\n\r\n\r\n        // Crear y almacenar la nueva recepcin de cliente\r\n        recepcionClientes[_idRecepcionCliente] = RecepcionCliente({\r\n            idRecepcionCliente: _idRecepcionCliente,\r\n            idCaja: _idCaja,\r\n            fecha: _fecha,\r\n            Latitude: _Latitude,\r\n            Longitude: _Longitude\r\n        });\r\n\r\n        recepcionClienteCount++;\r\n\r\n        // Emitir el evento de registro\r\n        emit RecepcionClienteRegistered(_idRecepcionCliente, _idCaja, _fecha, _Latitude, _Longitude);\r\n    }\r\n}\r\n",
  "sourcePath": "C:\\Users\\Smart samy\\mi_proyecto\\contracts\\distribuidor.sol",
  "compiler": {
    "name": "solc",
    "version": "0.8.0+commit.c7dfd78e.Emscripten.clang"
  },
  "schemaVersion": "3.4.16",
  "updatedAt": "2024-11-10T22:54:03.324Z",
  "networkType": "ethereum",
  "devdoc": {
    "kind": "dev",
    "methods": {},
    "version": 1
  },
  "userdoc": {
    "kind": "user",
    "methods": {},
    "version": 1
  }
}