{
  "contractName": "Transporte",
  "abi": [
    {
      "inputs": [
        {
          "internalType": "uint256",
          "name": "",
          "type": "uint256"
        }
      ],
      "name": "enviosCaja",
      "outputs": [
        {
          "internalType": "uint256",
          "name": "cajaId",
          "type": "uint256"
        },
        {
          "internalType": "uint256",
          "name": "transporteId",
          "type": "uint256"
        },
        {
          "internalType": "uint256",
          "name": "vehiculoId",
          "type": "uint256"
        },
        {
          "internalType": "uint256",
          "name": "fechaInicio",
          "type": "uint256"
        },
        {
          "internalType": "uint256",
          "name": "fechaLlegada",
          "type": "uint256"
        },
        {
          "internalType": "int256",
          "name": "rutaInicioLatitude",
          "type": "int256"
        },
        {
          "internalType": "int256",
          "name": "rutaInicioLongitude",
          "type": "int256"
        },
        {
          "internalType": "int256",
          "name": "rutaFinalLatitude",
          "type": "int256"
        },
        {
          "internalType": "int256",
          "name": "rutaFinalLongitude",
          "type": "int256"
        }
      ],
      "stateMutability": "view",
      "type": "function",
      "constant": true
    },
    {
      "inputs": [
        {
          "internalType": "uint256",
          "name": "",
          "type": "uint256"
        }
      ],
      "name": "enviosPallet",
      "outputs": [
        {
          "internalType": "uint256",
          "name": "palletId",
          "type": "uint256"
        },
        {
          "internalType": "uint256",
          "name": "transporteId",
          "type": "uint256"
        },
        {
          "internalType": "uint256",
          "name": "vehiculoId",
          "type": "uint256"
        },
        {
          "internalType": "uint256",
          "name": "fechaInicio",
          "type": "uint256"
        },
        {
          "internalType": "uint256",
          "name": "fechaLlegada",
          "type": "uint256"
        },
        {
          "internalType": "int256",
          "name": "rutaInicioLatitude",
          "type": "int256"
        },
        {
          "internalType": "int256",
          "name": "rutaInicioLongitude",
          "type": "int256"
        },
        {
          "internalType": "int256",
          "name": "rutaFinalLatitude",
          "type": "int256"
        },
        {
          "internalType": "int256",
          "name": "rutaFinalLongitude",
          "type": "int256"
        }
      ],
      "stateMutability": "view",
      "type": "function",
      "constant": true
    },
    {
      "inputs": [
        {
          "internalType": "uint256",
          "name": "palletId",
          "type": "uint256"
        },
        {
          "internalType": "uint256",
          "name": "transporteId",
          "type": "uint256"
        },
        {
          "internalType": "uint256",
          "name": "vehiculoId",
          "type": "uint256"
        },
        {
          "internalType": "int256",
          "name": "rutaInicioLatitude",
          "type": "int256"
        },
        {
          "internalType": "int256",
          "name": "rutaInicioLongitude",
          "type": "int256"
        }
      ],
      "name": "iniciarEnvioPallet",
      "outputs": [],
      "stateMutability": "nonpayable",
      "type": "function"
    },
    {
      "inputs": [
        {
          "internalType": "uint256",
          "name": "palletId",
          "type": "uint256"
        },
        {
          "internalType": "int256",
          "name": "rutaFinalLatitude",
          "type": "int256"
        },
        {
          "internalType": "int256",
          "name": "rutaFinalLongitude",
          "type": "int256"
        }
      ],
      "name": "finalizarEnvioPallet",
      "outputs": [],
      "stateMutability": "nonpayable",
      "type": "function"
    },
    {
      "inputs": [
        {
          "internalType": "uint256",
          "name": "cajaId",
          "type": "uint256"
        },
        {
          "internalType": "uint256",
          "name": "transporteId",
          "type": "uint256"
        },
        {
          "internalType": "uint256",
          "name": "vehiculoId",
          "type": "uint256"
        },
        {
          "internalType": "int256",
          "name": "rutaInicioLatitude",
          "type": "int256"
        },
        {
          "internalType": "int256",
          "name": "rutaInicioLongitude",
          "type": "int256"
        }
      ],
      "name": "iniciarEnvioCaja",
      "outputs": [],
      "stateMutability": "nonpayable",
      "type": "function"
    },
    {
      "inputs": [
        {
          "internalType": "uint256",
          "name": "cajaId",
          "type": "uint256"
        },
        {
          "internalType": "int256",
          "name": "rutaFinalLatitude",
          "type": "int256"
        },
        {
          "internalType": "int256",
          "name": "rutaFinalLongitude",
          "type": "int256"
        }
      ],
      "name": "finalizarEnvioCaja",
      "outputs": [],
      "stateMutability": "nonpayable",
      "type": "function"
    }
  ],
  "bytecode": "0x608060405234801561001057600080fd5b50610b4d806100206000396000f3fe608060405234801561001057600080fd5b50600436106100625760003560e01c80630adbcce3146100675780634ed7332a1461009f5780635f2e139f146100bb578063642e6d11146100d757806374a276e5146100f3578063e07dbc511461012b575b600080fd5b610081600480360381019061007c9190610606565b610147565b60405161009699989796959493929190610a37565b60405180910390f35b6100b960048036038101906100b4919061067e565b610195565b005b6100d560048036038101906100d0919061062f565b6102a9565b005b6100f160048036038101906100ec919061067e565b610391565b005b61010d60048036038101906101089190610606565b6104a3565b60405161012299989796959493929190610a37565b60405180910390f35b6101456004803603810190610140919061062f565b6104f1565b005b60006020528060005260406000206000915090508060000154908060010154908060020154908060030154908060040154908060050154908060060154908060070154908060080154905089565b60006001600087815260200190815260200160002060030154146101ee576040517f08c379a00000000000000000000000000000000000000000000000000000000081526004016101e590610a17565b60405180910390fd5b6040518061012001604052808681526020018581526020018481526020014281526020016000815260200183815260200182815260200160008152602001600081525060016000878152602001908152602001600020600082015181600001556020820151816001015560408201518160020155606082015181600301556080820151816004015560a0820151816005015560c0820151816006015560e0820151816007015561010082015181600801559050505050505050565b6000806000858152602001908152602001600020600301541415610302576040517f08c379a00000000000000000000000000000000000000000000000000000000081526004016102f9906109f7565b60405180910390fd5b6000806000858152602001908152602001600020600401541461035a576040517f08c379a0000000000000000000000000000000000000000000000000000000008152600401610351906109b7565b60405180910390fd5b6000806000858152602001908152602001600020905042816004018190555082816007018190555081816008018190555050505050565b600080600087815260200190815260200160002060030154146103e9576040517f08c379a00000000000000000000000000000000000000000000000000000000081526004016103e0906109d7565b60405180910390fd5b60405180610120016040528086815260200185815260200184815260200142815260200160008152602001838152602001828152602001600081526020016000815250600080878152602001908152602001600020600082015181600001556020820151816001015560408201518160020155606082015181600301556080820151816004015560a0820151816005015560c0820151816006015560e0820151816007015561010082015181600801559050505050505050565b60016020528060005260406000206000915090508060000154908060010154908060020154908060030154908060040154908060050154908060060154908060070154908060080154905089565b60006001600085815260200190815260200160002060030154141561054b576040517f08c379a000000000000000000000000000000000000000000000000000000000815260040161054290610997565b60405180910390fd5b60006001600085815260200190815260200160002060040154146105a4576040517f08c379a000000000000000000000000000000000000000000000000000000000815260040161059b90610977565b60405180910390fd5b600060016000858152602001908152602001600020905042816004018190555082816007018190555081816008018190555050505050565b6000813590506105eb81610ae9565b92915050565b60008135905061060081610b00565b92915050565b60006020828403121561061857600080fd5b6000610626848285016105f1565b91505092915050565b60008060006060848603121561064457600080fd5b6000610652868287016105f1565b9350506020610663868287016105dc565b9250506040610674868287016105dc565b9150509250925092565b600080600080600060a0868803121561069657600080fd5b60006106a4888289016105f1565b95505060206106b5888289016105f1565b94505060406106c6888289016105f1565b93505060606106d7888289016105dc565b92505060806106e8888289016105dc565b9150509295509295909350565b6106fe81610ad5565b82525050565b6000610711602983610ac4565b91507f456c20656e76696f206465206c612063616a61207961206861207369646f206660008301527f696e616c697a61646f00000000000000000000000000000000000000000000006020830152604082019050919050565b6000610777602783610ac4565b91507f456c20656e76696f206465206c612063616a61206e6f206861207369646f206960008301527f6e69636961646f000000000000000000000000000000000000000000000000006020830152604082019050919050565b60006107dd602983610ac4565b91507f456c20656e76696f2064656c2070616c6c6574207961206861207369646f206660008301527f696e616c697a61646f00000000000000000000000000000000000000000000006020830152604082019050919050565b6000610843602783610ac4565b91507f456c20656e76696f2064656c2070616c6c6574207961206861207369646f206960008301527f6e69636961646f000000000000000000000000000000000000000000000000006020830152604082019050919050565b60006108a9602783610ac4565b91507f456c20656e76696f2064656c2070616c6c6574206e6f206861207369646f206960008301527f6e69636961646f000000000000000000000000000000000000000000000000006020830152604082019050919050565b600061090f602783610ac4565b91507f456c20656e76696f206465206c612063616a61207961206861207369646f206960008301527f6e69636961646f000000000000000000000000000000000000000000000000006020830152604082019050919050565b61097181610adf565b82525050565b6000602082019050818103600083015261099081610704565b9050919050565b600060208201905081810360008301526109b08161076a565b9050919050565b600060208201905081810360008301526109d0816107d0565b9050919050565b600060208201905081810360008301526109f081610836565b9050919050565b60006020820190508181036000830152610a108161089c565b9050919050565b60006020820190508181036000830152610a3081610902565b9050919050565b600061012082019050610a4d600083018c610968565b610a5a602083018b610968565b610a67604083018a610968565b610a746060830189610968565b610a816080830188610968565b610a8e60a08301876106f5565b610a9b60c08301866106f5565b610aa860e08301856106f5565b610ab66101008301846106f5565b9a9950505050505050505050565b600082825260208201905092915050565b6000819050919050565b6000819050919050565b610af281610ad5565b8114610afd57600080fd5b50565b610b0981610adf565b8114610b1457600080fd5b5056fea264697066735822122097e53d9d98612d91245b6ea1a3374f0c722805e6288847db0c9a4ef7e468679264736f6c63430008000033",
  "immutableReferences": {},
  "source": "// SPDX-License-Identifier: MIT\r\npragma solidity ^0.8.0;\r\n\r\ncontract Transporte {\r\n\r\n    struct EnvioPallet {\r\n        uint256 palletId;\r\n        uint256 transporteId;\r\n        uint256 vehiculoId;\r\n        uint256 fechaInicio;\r\n        uint256 fechaLlegada;\r\n        int256 rutaInicioLatitude;   // Almacenado como int256 con 10 decimales\r\n        int256 rutaInicioLongitude;\r\n        int256 rutaFinalLatitude;\r\n        int256 rutaFinalLongitude;\r\n    }\r\n\r\n    struct EnvioCaja {\r\n        uint256 cajaId;\r\n        uint256 transporteId;\r\n        uint256 vehiculoId;\r\n        uint256 fechaInicio;\r\n        uint256 fechaLlegada;\r\n        int256 rutaInicioLatitude;   // Almacenado como int256 con 10 decimales\r\n        int256 rutaInicioLongitude;\r\n        int256 rutaFinalLatitude;\r\n        int256 rutaFinalLongitude;\r\n    }\r\n\r\n    mapping(uint256 => EnvioPallet) public enviosPallet;\r\n    mapping(uint256 => EnvioCaja) public enviosCaja;\r\n\r\n    // Funcin pblica para iniciar el envo de un pallet\r\n    function iniciarEnvioPallet(\r\n        uint256 palletId,\r\n        uint256 transporteId,\r\n        uint256 vehiculoId,\r\n        int256 rutaInicioLatitude,\r\n        int256 rutaInicioLongitude\r\n    ) public {\r\n        require(enviosPallet[palletId].fechaInicio == 0, \"El envio del pallet ya ha sido iniciado\");\r\n\r\n        enviosPallet[palletId] = EnvioPallet({\r\n            palletId: palletId,\r\n            transporteId: transporteId,\r\n            vehiculoId: vehiculoId,\r\n            fechaInicio: block.timestamp,\r\n            fechaLlegada: 0,\r\n            rutaInicioLatitude: rutaInicioLatitude,\r\n            rutaInicioLongitude: rutaInicioLongitude,\r\n            rutaFinalLatitude: 0,\r\n            rutaFinalLongitude: 0\r\n        });\r\n    }\r\n\r\n    // Funcin pblica para finalizar el envo de un pallet\r\n    function finalizarEnvioPallet(\r\n        uint256 palletId,\r\n        int256 rutaFinalLatitude,\r\n        int256 rutaFinalLongitude\r\n    ) public {\r\n        require(enviosPallet[palletId].fechaInicio != 0, \"El envio del pallet no ha sido iniciado\");\r\n        require(enviosPallet[palletId].fechaLlegada == 0, \"El envio del pallet ya ha sido finalizado\");\r\n\r\n        EnvioPallet storage envio = enviosPallet[palletId];\r\n        envio.fechaLlegada = block.timestamp;\r\n        envio.rutaFinalLatitude = rutaFinalLatitude;\r\n        envio.rutaFinalLongitude = rutaFinalLongitude;\r\n    }\r\n\r\n    // Funcin pblica para iniciar el envo de una caja\r\n    function iniciarEnvioCaja(\r\n        uint256 cajaId,\r\n        uint256 transporteId,\r\n        uint256 vehiculoId,\r\n        int256 rutaInicioLatitude,\r\n        int256 rutaInicioLongitude\r\n    ) public {\r\n        require(enviosCaja[cajaId].fechaInicio == 0, \"El envio de la caja ya ha sido iniciado\");\r\n\r\n        enviosCaja[cajaId] = EnvioCaja({\r\n            cajaId: cajaId,\r\n            transporteId: transporteId,\r\n            vehiculoId: vehiculoId,\r\n            fechaInicio: block.timestamp,\r\n            fechaLlegada: 0,\r\n            rutaInicioLatitude: rutaInicioLatitude,\r\n            rutaInicioLongitude: rutaInicioLongitude,\r\n            rutaFinalLatitude: 0,\r\n            rutaFinalLongitude: 0\r\n        });\r\n    }\r\n\r\n    // Funcin pblica para finalizar el envo de una caja\r\n    function finalizarEnvioCaja(\r\n        uint256 cajaId,\r\n        int256 rutaFinalLatitude,\r\n        int256 rutaFinalLongitude\r\n    ) public {\r\n        require(enviosCaja[cajaId].fechaInicio != 0, \"El envio de la caja no ha sido iniciado\");\r\n        require(enviosCaja[cajaId].fechaLlegada == 0, \"El envio de la caja ya ha sido finalizado\");\r\n\r\n        EnvioCaja storage envio = enviosCaja[cajaId];\r\n        envio.fechaLlegada = block.timestamp;\r\n        envio.rutaFinalLatitude = rutaFinalLatitude;\r\n        envio.rutaFinalLongitude = rutaFinalLongitude;\r\n    }\r\n}\r\n",
  "sourcePath": "C:\\Users\\Smart samy\\mi_proyecto\\contracts\\transporte.sol",
  "compiler": {
    "name": "solc",
    "version": "0.8.0+commit.c7dfd78e.Emscripten.clang"
  },
  "schemaVersion": "3.4.16",
  "updatedAt": "2024-11-10T22:54:02.987Z",
  "networkType": "ethereum",
  "devdoc": {
    "kind": "dev",
    "methods": {},
    "version": 1
  },
  "userdoc": {
    "kind": "user",
    "methods": {},
    "version": 1
  }
}