{
  "contractName": "Cosecha",
  "abi": [
    {
      "anonymous": false,
      "inputs": [
        {
          "indexed": false,
          "internalType": "uint256",
          "name": "id",
          "type": "uint256"
        }
      ],
      "name": "TransportadoMarcado",
      "type": "event"
    },
    {
      "inputs": [],
      "name": "cosechaCounter",
      "outputs": [
        {
          "internalType": "uint256",
          "name": "",
          "type": "uint256"
        }
      ],
      "stateMutability": "view",
      "type": "function"
    },
    {
      "inputs": [
        {
          "internalType": "uint256",
          "name": "",
          "type": "uint256"
        }
      ],
      "name": "cosechas",
      "outputs": [
        {
          "internalType": "uint256",
          "name": "id",
          "type": "uint256"
        },
        {
          "internalType": "string",
          "name": "producto",
          "type": "string"
        },
        {
          "internalType": "string",
          "name": "fechaCosecha",
          "type": "string"
        },
        {
          "internalType": "string",
          "name": "ubicacion",
          "type": "string"
        },
        {
          "internalType": "uint256",
          "name": "cantidadLote",
          "type": "uint256"
        },
        {
          "internalType": "uint256",
          "name": "cantidadAgua",
          "type": "uint256"
        },
        {
          "internalType": "string",
          "name": "pesticidasFertilizantes",
          "type": "string"
        },
        {
          "internalType": "string",
          "name": "practicasCultivo",
          "type": "string"
        },
        {
          "internalType": "bool",
          "name": "transportado",
          "type": "bool"
        }
      ],
      "stateMutability": "view",
      "type": "function"
    },
    {
      "inputs": [
        {
          "internalType": "string",
          "name": "_producto",
          "type": "string"
        },
        {
          "internalType": "string",
          "name": "_fechaCosecha",
          "type": "string"
        },
        {
          "internalType": "string",
          "name": "_ubicacion",
          "type": "string"
        },
        {
          "internalType": "uint256",
          "name": "_cantidadLote",
          "type": "uint256"
        },
        {
          "internalType": "uint256",
          "name": "_cantidadAgua",
          "type": "uint256"
        },
        {
          "internalType": "string",
          "name": "_pesticidasFertilizantes",
          "type": "string"
        },
        {
          "internalType": "string",
          "name": "_practicasCultivo",
          "type": "string"
        }
      ],
      "name": "registrarCosecha",
      "outputs": [
        {
          "internalType": "uint256",
          "name": "",
          "type": "uint256"
        }
      ],
      "stateMutability": "nonpayable",
      "type": "function"
    },
    {
      "inputs": [
        {
          "internalType": "uint256",
          "name": "_idCosecha",
          "type": "uint256"
        }
      ],
      "name": "marcarTransportado",
      "outputs": [],
      "stateMutability": "nonpayable",
      "type": "function"
    },
    {
      "inputs": [
        {
          "internalType": "uint256",
          "name": "_id",
          "type": "uint256"
        }
      ],
      "name": "obtenerCosecha",
      "outputs": [
        {
          "components": [
            {
              "internalType": "uint256",
              "name": "id",
              "type": "uint256"
            },
            {
              "internalType": "string",
              "name": "producto",
              "type": "string"
            },
            {
              "internalType": "string",
              "name": "fechaCosecha",
              "type": "string"
            },
            {
              "internalType": "string",
              "name": "ubicacion",
              "type": "string"
            },
            {
              "internalType": "uint256",
              "name": "cantidadLote",
              "type": "uint256"
            },
            {
              "internalType": "uint256",
              "name": "cantidadAgua",
              "type": "uint256"
            },
            {
              "internalType": "string",
              "name": "pesticidasFertilizantes",
              "type": "string"
            },
            {
              "internalType": "string",
              "name": "practicasCultivo",
              "type": "string"
            },
            {
              "internalType": "bool",
              "name": "transportado",
              "type": "bool"
            }
          ],
          "internalType": "struct Cosecha.CosechaData",
          "name": "",
          "type": "tuple"
        }
      ],
      "stateMutability": "view",
      "type": "function"
    }
  ],
  "bytecode": "0x608060405234801561001057600080fd5b506110aa806100206000396000f3fe608060405234801561001057600080fd5b50600436106100575760003560e01c80631c7847351461005c578063364bfd8614610094578063411cace2146100b25780636698e4dc146100ce5780638f248fa7146100fe575b600080fd5b61007660048036038101906100719190610bb9565b61012e565b60405161008b99989796959493929190610dae565b60405180910390f35b61009c610431565b6040516100a99190610d93565b60405180910390f35b6100cc60048036038101906100c79190610bb9565b610437565b005b6100e860048036038101906100e39190610aa3565b61049f565b6040516100f59190610d93565b60405180910390f35b61011860048036038101906101139190610bb9565b6105f4565b6040516101259190610d71565b60405180910390f35b600160205280600052604060002060009150905080600001549080600101805461015790610f44565b80601f016020809104026020016040519081016040528092919081815260200182805461018390610f44565b80156101d05780601f106101a5576101008083540402835291602001916101d0565b820191906000526020600020905b8154815290600101906020018083116101b357829003601f168201915b5050505050908060020180546101e590610f44565b80601f016020809104026020016040519081016040528092919081815260200182805461021190610f44565b801561025e5780601f106102335761010080835404028352916020019161025e565b820191906000526020600020905b81548152906001019060200180831161024157829003601f168201915b50505050509080600301805461027390610f44565b80601f016020809104026020016040519081016040528092919081815260200182805461029f90610f44565b80156102ec5780601f106102c1576101008083540402835291602001916102ec565b820191906000526020600020905b8154815290600101906020018083116102cf57829003601f168201915b50505050509080600401549080600501549080600601805461030d90610f44565b80601f016020809104026020016040519081016040528092919081815260200182805461033990610f44565b80156103865780601f1061035b57610100808354040283529160200191610386565b820191906000526020600020905b81548152906001019060200180831161036957829003601f168201915b50505050509080600701805461039b90610f44565b80601f01602080910402602001604051908101604052809291908181526020018280546103c790610f44565b80156104145780601f106103e957610100808354040283529160200191610414565b820191906000526020600020905b8154815290600101906020018083116103f757829003601f168201915b5050505050908060080160009054906101000a900460ff16905089565b60005481565b600180600083815260200190815260200160002060080160006101000a81548160ff0219169083151502179055507f26b4c236c84f657edb7ddd9ef810a033cc0bcfd204a383b3b9e84474cc0207b0816040516104949190610d93565b60405180910390a150565b60008060008154809291906104b390610f76565b91905055506040518061012001604052806000548152602001898152602001888152602001878152602001868152602001858152602001848152602001838152602001600015158152506001600080548152602001908152602001600020600082015181600001556020820151816001019080519060200190610537929190610935565b506040820151816002019080519060200190610554929190610935565b506060820151816003019080519060200190610571929190610935565b506080820151816004015560a0820151816005015560c08201518160060190805190602001906105a2929190610935565b5060e08201518160070190805190602001906105bf929190610935565b506101008201518160080160006101000a81548160ff0219169083151502179055509050506000549050979650505050505050565b6105fc6109bb565b60016000838152602001908152602001600020604051806101200160405290816000820154815260200160018201805461063590610f44565b80601f016020809104026020016040519081016040528092919081815260200182805461066190610f44565b80156106ae5780601f10610683576101008083540402835291602001916106ae565b820191906000526020600020905b81548152906001019060200180831161069157829003601f168201915b505050505081526020016002820180546106c790610f44565b80601f01602080910402602001604051908101604052809291908181526020018280546106f390610f44565b80156107405780601f1061071557610100808354040283529160200191610740565b820191906000526020600020905b81548152906001019060200180831161072357829003601f168201915b5050505050815260200160038201805461075990610f44565b80601f016020809104026020016040519081016040528092919081815260200182805461078590610f44565b80156107d25780601f106107a7576101008083540402835291602001916107d2565b820191906000526020600020905b8154815290600101906020018083116107b557829003601f168201915b5050505050815260200160048201548152602001600582015481526020016006820180546107ff90610f44565b80601f016020809104026020016040519081016040528092919081815260200182805461082b90610f44565b80156108785780601f1061084d57610100808354040283529160200191610878565b820191906000526020600020905b81548152906001019060200180831161085b57829003601f168201915b5050505050815260200160078201805461089190610f44565b80601f01602080910402602001604051908101604052809291908181526020018280546108bd90610f44565b801561090a5780601f106108df5761010080835404028352916020019161090a565b820191906000526020600020905b8154815290600101906020018083116108ed57829003601f168201915b505050505081526020016008820160009054906101000a900460ff1615151515815250509050919050565b82805461094190610f44565b90600052602060002090601f01602090048101928261096357600085556109aa565b82601f1061097c57805160ff19168380011785556109aa565b828001600101855582156109aa579182015b828111156109a957825182559160200191906001019061098e565b5b5090506109b79190610a09565b5090565b60405180610120016040528060008152602001606081526020016060815260200160608152602001600081526020016000815260200160608152602001606081526020016000151581525090565b5b80821115610a22576000816000905550600101610a0a565b5090565b6000610a39610a3484610e8f565b610e5e565b905082815260208101848484011115610a5157600080fd5b610a5c848285610f02565b509392505050565b600082601f830112610a7557600080fd5b8135610a85848260208601610a26565b91505092915050565b600081359050610a9d8161105d565b92915050565b600080600080600080600060e0888a031215610abe57600080fd5b600088013567ffffffffffffffff811115610ad857600080fd5b610ae48a828b01610a64565b975050602088013567ffffffffffffffff811115610b0157600080fd5b610b0d8a828b01610a64565b965050604088013567ffffffffffffffff811115610b2a57600080fd5b610b368a828b01610a64565b9550506060610b478a828b01610a8e565b9450506080610b588a828b01610a8e565b93505060a088013567ffffffffffffffff811115610b7557600080fd5b610b818a828b01610a64565b92505060c088013567ffffffffffffffff811115610b9e57600080fd5b610baa8a828b01610a64565b91505092959891949750929550565b600060208284031215610bcb57600080fd5b6000610bd984828501610a8e565b91505092915050565b610beb81610eec565b82525050565b610bfa81610eec565b82525050565b6000610c0b82610ebf565b610c158185610eca565b9350610c25818560208601610f11565b610c2e8161104c565b840191505092915050565b6000610c4482610ebf565b610c4e8185610edb565b9350610c5e818560208601610f11565b610c678161104c565b840191505092915050565b600061012083016000830151610c8b6000860182610d53565b5060208301518482036020860152610ca38282610c00565b91505060408301518482036040860152610cbd8282610c00565b91505060608301518482036060860152610cd78282610c00565b9150506080830151610cec6080860182610d53565b5060a0830151610cff60a0860182610d53565b5060c083015184820360c0860152610d178282610c00565b91505060e083015184820360e0860152610d318282610c00565b915050610100830151610d48610100860182610be2565b508091505092915050565b610d5c81610ef8565b82525050565b610d6b81610ef8565b82525050565b60006020820190508181036000830152610d8b8184610c72565b905092915050565b6000602082019050610da86000830184610d62565b92915050565b600061012082019050610dc4600083018c610d62565b8181036020830152610dd6818b610c39565b90508181036040830152610dea818a610c39565b90508181036060830152610dfe8189610c39565b9050610e0d6080830188610d62565b610e1a60a0830187610d62565b81810360c0830152610e2c8186610c39565b905081810360e0830152610e408185610c39565b9050610e50610100830184610bf1565b9a9950505050505050505050565b6000604051905081810181811067ffffffffffffffff82111715610e8557610e8461101d565b5b8060405250919050565b600067ffffffffffffffff821115610eaa57610ea961101d565b5b601f19601f8301169050602081019050919050565b600081519050919050565b600082825260208201905092915050565b600082825260208201905092915050565b60008115159050919050565b6000819050919050565b82818337600083830152505050565b60005b83811015610f2f578082015181840152602081019050610f14565b83811115610f3e576000848401525b50505050565b60006002820490506001821680610f5c57607f821691505b60208210811415610f7057610f6f610fee565b5b50919050565b6000610f8182610ef8565b91507fffffffffffffffffffffffffffffffffffffffffffffffffffffffffffffffff821415610fb457610fb3610fbf565b5b600182019050919050565b7f4e487b7100000000000000000000000000000000000000000000000000000000600052601160045260246000fd5b7f4e487b7100000000000000000000000000000000000000000000000000000000600052602260045260246000fd5b7f4e487b7100000000000000000000000000000000000000000000000000000000600052604160045260246000fd5b6000601f19601f8301169050919050565b61106681610ef8565b811461107157600080fd5b5056fea264697066735822122070b02c0e4c404f61410f3e456be76e04e8f8678c6a9dfd06293744dc6953033e64736f6c63430008000033",
  "immutableReferences": {},
  "source": "// SPDX-License-Identifier: GPL-3.0\r\npragma solidity ^0.8.0;\r\n\r\ncontract Cosecha {\r\n    uint256 public cosechaCounter;\r\n    mapping(uint256 => CosechaData) public cosechas;\r\n\r\n    struct CosechaData {\r\n        uint256 id;\r\n        string producto;\r\n        string fechaCosecha;\r\n        string ubicacion;\r\n        uint256 cantidadLote; // Cantidad del lote en unidades o peso\r\n        uint256 cantidadAgua; // Cantidad de agua utilizada en litros\r\n        string pesticidasFertilizantes; // Detalles sobre pesticidas y fertilizantes\r\n        string practicasCultivo; // Prcticas agrcolas sostenibles\r\n        bool transportado; // Para marcar si la cosecha ya ha sido transportada\r\n    }\r\n\r\n    // Evento para marcar una cosecha como transportada\r\n    event TransportadoMarcado(uint256 id);\r\n\r\n    function registrarCosecha(\r\n        string memory _producto,\r\n        string memory _fechaCosecha,\r\n        string memory _ubicacion,\r\n        uint256 _cantidadLote,\r\n        uint256 _cantidadAgua,\r\n        string memory _pesticidasFertilizantes,\r\n        string memory _practicasCultivo\r\n    ) public returns (uint256) {\r\n        cosechaCounter++;\r\n        cosechas[cosechaCounter] = CosechaData(\r\n            cosechaCounter,\r\n            _producto,\r\n            _fechaCosecha,\r\n            _ubicacion,\r\n            _cantidadLote,\r\n            _cantidadAgua,\r\n            _pesticidasFertilizantes,\r\n            _practicasCultivo,\r\n            false\r\n        );\r\n        return cosechaCounter; // Devuelve el ID de la nueva cosecha\r\n    }\r\n\r\n    function marcarTransportado(uint256 _idCosecha) external {\r\n        cosechas[_idCosecha].transportado = true;\r\n        emit TransportadoMarcado(_idCosecha); // Emitir el evento\r\n    }\r\n\r\n    function obtenerCosecha(uint256 _id) public view returns (CosechaData memory) {\r\n        return cosechas[_id];\r\n    }\r\n}\r\n",
  "sourcePath": "C:\\Users\\Smart samy\\mi_proyecto\\contracts\\cosecha.sol",
  "compiler": {
    "name": "solc",
    "version": "0.8.0+commit.c7dfd78e.Emscripten.clang"
  },
  "schemaVersion": "3.4.16",
  "updatedAt": "2024-09-07T04:19:11.588Z",
  "devdoc": {
    "kind": "dev",
    "methods": {},
    "version": 1
  },
  "userdoc": {
    "kind": "user",
    "methods": {},
    "version": 1
  }
}