{
  "contractName": "PalletRegistry",
  "abi": [
    {
      "anonymous": false,
      "inputs": [
        {
          "indexed": false,
          "internalType": "uint256",
          "name": "idDistribuidorPallet",
          "type": "uint256"
        },
        {
          "indexed": false,
          "internalType": "uint256",
          "name": "idPallet",
          "type": "uint256"
        }
      ],
      "name": "DistribuidorPalletEliminado",
      "type": "event"
    },
    {
      "anonymous": false,
      "inputs": [
        {
          "indexed": false,
          "internalType": "uint256",
          "name": "idDistribuidorPallet",
          "type": "uint256"
        },
        {
          "indexed": false,
          "internalType": "uint256",
          "name": "idPallet",
          "type": "uint256"
        },
        {
          "indexed": false,
          "internalType": "uint256",
          "name": "idDistribuidor",
          "type": "uint256"
        },
        {
          "indexed": false,
          "internalType": "uint256",
          "name": "pesoEnvio",
          "type": "uint256"
        }
      ],
      "name": "DistribuidorPalletRegistered",
      "type": "event"
    },
    {
      "anonymous": false,
      "inputs": [
        {
          "indexed": false,
          "internalType": "uint256",
          "name": "idDistribuidorPallet",
          "type": "uint256"
        }
      ],
      "name": "DistribuidorPalletUpdated",
      "type": "event"
    },
    {
      "anonymous": false,
      "inputs": [
        {
          "indexed": false,
          "internalType": "uint256",
          "name": "idPallet",
          "type": "uint256"
        },
        {
          "indexed": false,
          "internalType": "uint256",
          "name": "idPredio",
          "type": "uint256"
        },
        {
          "indexed": false,
          "internalType": "string",
          "name": "producto",
          "type": "string"
        },
        {
          "indexed": false,
          "internalType": "uint256",
          "name": "fechaCosecha",
          "type": "uint256"
        },
        {
          "indexed": false,
          "internalType": "uint256",
          "name": "pesoPallet",
          "type": "uint256"
        }
      ],
      "name": "PalletRegistered",
      "type": "event"
    },
    {
      "anonymous": false,
      "inputs": [
        {
          "indexed": false,
          "internalType": "uint256",
          "name": "idPallet",
          "type": "uint256"
        }
      ],
      "name": "PalletUpdated",
      "type": "event"
    },
    {
      "inputs": [
        {
          "internalType": "uint256",
          "name": "",
          "type": "uint256"
        },
        {
          "internalType": "uint256",
          "name": "",
          "type": "uint256"
        }
      ],
      "name": "distribuidorPallets",
      "outputs": [
        {
          "internalType": "uint256",
          "name": "idDistribuidorPallet",
          "type": "uint256"
        },
        {
          "internalType": "uint256",
          "name": "idPallet",
          "type": "uint256"
        },
        {
          "internalType": "uint256",
          "name": "idDistribuidor",
          "type": "uint256"
        },
        {
          "internalType": "uint256",
          "name": "pesoEnvio",
          "type": "uint256"
        }
      ],
      "stateMutability": "view",
      "type": "function",
      "constant": true
    },
    {
      "inputs": [],
      "name": "palletCount",
      "outputs": [
        {
          "internalType": "uint256",
          "name": "",
          "type": "uint256"
        }
      ],
      "stateMutability": "view",
      "type": "function",
      "constant": true
    },
    {
      "inputs": [
        {
          "internalType": "uint256",
          "name": "",
          "type": "uint256"
        }
      ],
      "name": "pallets",
      "outputs": [
        {
          "internalType": "uint256",
          "name": "idPallet",
          "type": "uint256"
        },
        {
          "internalType": "uint256",
          "name": "idPredio",
          "type": "uint256"
        },
        {
          "internalType": "string",
          "name": "producto",
          "type": "string"
        },
        {
          "internalType": "uint256",
          "name": "fechaCosecha",
          "type": "uint256"
        },
        {
          "internalType": "uint256",
          "name": "pesoPallet",
          "type": "uint256"
        }
      ],
      "stateMutability": "view",
      "type": "function",
      "constant": true
    },
    {
      "inputs": [
        {
          "internalType": "uint256",
          "name": "_idPallet",
          "type": "uint256"
        },
        {
          "internalType": "uint256",
          "name": "_idPredio",
          "type": "uint256"
        },
        {
          "internalType": "string",
          "name": "_producto",
          "type": "string"
        },
        {
          "internalType": "uint256",
          "name": "_fechaCosecha",
          "type": "uint256"
        },
        {
          "internalType": "uint256",
          "name": "_pesoPallet",
          "type": "uint256"
        }
      ],
      "name": "registerPallet",
      "outputs": [],
      "stateMutability": "nonpayable",
      "type": "function"
    },
    {
      "inputs": [
        {
          "internalType": "uint256",
          "name": "_idPallet",
          "type": "uint256"
        }
      ],
      "name": "getPallet",
      "outputs": [
        {
          "components": [
            {
              "internalType": "uint256",
              "name": "idPallet",
              "type": "uint256"
            },
            {
              "internalType": "uint256",
              "name": "idPredio",
              "type": "uint256"
            },
            {
              "internalType": "string",
              "name": "producto",
              "type": "string"
            },
            {
              "internalType": "uint256",
              "name": "fechaCosecha",
              "type": "uint256"
            },
            {
              "internalType": "uint256",
              "name": "pesoPallet",
              "type": "uint256"
            }
          ],
          "internalType": "struct PalletRegistry.Pallet",
          "name": "",
          "type": "tuple"
        }
      ],
      "stateMutability": "view",
      "type": "function",
      "constant": true
    },
    {
      "inputs": [
        {
          "internalType": "uint256",
          "name": "_idDistribuidorPallet",
          "type": "uint256"
        },
        {
          "internalType": "uint256",
          "name": "_idPallet",
          "type": "uint256"
        },
        {
          "internalType": "uint256",
          "name": "_idDistribuidor",
          "type": "uint256"
        },
        {
          "internalType": "uint256",
          "name": "_pesoEnvio",
          "type": "uint256"
        }
      ],
      "name": "registerDistribuidorPallet",
      "outputs": [],
      "stateMutability": "nonpayable",
      "type": "function"
    },
    {
      "inputs": [
        {
          "internalType": "uint256",
          "name": "_idPallet",
          "type": "uint256"
        },
        {
          "internalType": "uint256",
          "name": "_idPredio",
          "type": "uint256"
        },
        {
          "internalType": "string",
          "name": "_producto",
          "type": "string"
        },
        {
          "internalType": "uint256",
          "name": "_fechaCosecha",
          "type": "uint256"
        },
        {
          "internalType": "uint256",
          "name": "_pesoPallet",
          "type": "uint256"
        }
      ],
      "name": "updatePallet",
      "outputs": [],
      "stateMutability": "nonpayable",
      "type": "function"
    },
    {
      "inputs": [
        {
          "internalType": "uint256",
          "name": "_idDistribuidorPallet",
          "type": "uint256"
        },
        {
          "internalType": "uint256",
          "name": "_idPallet",
          "type": "uint256"
        },
        {
          "internalType": "uint256",
          "name": "_idDistribuidor",
          "type": "uint256"
        },
        {
          "internalType": "uint256",
          "name": "_pesoEnvio",
          "type": "uint256"
        }
      ],
      "name": "updateDistribuidorPallet",
      "outputs": [],
      "stateMutability": "nonpayable",
      "type": "function"
    },
    {
      "inputs": [
        {
          "internalType": "uint256",
          "name": "_idPallet",
          "type": "uint256"
        }
      ],
      "name": "getDistribuidorPalletsByPallet",
      "outputs": [
        {
          "components": [
            {
              "internalType": "uint256",
              "name": "idDistribuidorPallet",
              "type": "uint256"
            },
            {
              "internalType": "uint256",
              "name": "idPallet",
              "type": "uint256"
            },
            {
              "internalType": "uint256",
              "name": "idDistribuidor",
              "type": "uint256"
            },
            {
              "internalType": "uint256",
              "name": "pesoEnvio",
              "type": "uint256"
            }
          ],
          "internalType": "struct PalletRegistry.DistribuidorPallet[]",
          "name": "",
          "type": "tuple[]"
        }
      ],
      "stateMutability": "view",
      "type": "function",
      "constant": true
    },
    {
      "inputs": [
        {
          "internalType": "uint256",
          "name": "_idPallet",
          "type": "uint256"
        },
        {
          "internalType": "uint256",
          "name": "_idDistribuidorPallet",
          "type": "uint256"
        }
      ],
      "name": "eliminarDistribuidorPallet",
      "outputs": [],
      "stateMutability": "nonpayable",
      "type": "function"
    }
  ],
  "bytecode": "0x608060405234801561001057600080fd5b506118c0806100206000396000f3fe608060405234801561001057600080fd5b506004361061009e5760003560e01c806392c53eff1161006657806392c53eff146101605780639e72227514610190578063b8f6a694146101c0578063c3de28dd146101dc578063f15e10e9146101f85761009e565b806315a2d958146100a357806337310b9b146100bf578063392f3357146100f257806351822d921461010e57806376619d651461012c575b600080fd5b6100bd60048036038101906100b89190611006565b610214565b005b6100d960048036038101906100d49190610f3b565b610434565b6040516100e994939291906115ce565b60405180910390f35b61010c60048036038101906101079190610f77565b610481565b005b6101166105b8565b6040516101239190611530565b60405180910390f35b61014660048036038101906101419190610f12565b6105be565b604051610157959493929190611574565b60405180910390f35b61017a60048036038101906101759190610f12565b61067c565b604051610187919061150e565b60405180910390f35b6101aa60048036038101906101a59190610f12565b610762565b6040516101b7919061142c565b60405180910390f35b6101da60048036038101906101d59190610f77565b6107fc565b005b6101f660048036038101906101f19190610f3b565b610914565b005b610212600480360381019061020d9190611006565b610bcc565b005b6000805b60016000868152602001908152602001600020805490508110156103ec5785600160008781526020019081526020016000208281548110610282577f4e487b7100000000000000000000000000000000000000000000000000000000600052603260045260246000fd5b90600052602060002090600402016000015414156103d957836001600087815260200190815260200160002082815481106102e6577f4e487b7100000000000000000000000000000000000000000000000000000000600052603260045260246000fd5b90600052602060002090600402016002015414610338576040517f08c379a000000000000000000000000000000000000000000000000000000000815260040161032f9061148e565b60405180910390fd5b82600160008781526020019081526020016000208281548110610384577f4e487b7100000000000000000000000000000000000000000000000000000000600052603260045260246000fd5b906000526020600020906004020160030181905550600191507f6e0502f45d965da77e167bb9a5919e2442eb89bb077d9db5c430e58c871afb5e866040516103cc9190611530565b60405180910390a16103ec565b80806103e49061178c565b915050610218565b508061042d576040517f08c379a0000000000000000000000000000000000000000000000000000000008152600401610424906114ee565b60405180910390fd5b5050505050565b6001602052816000526040600020818154811061045057600080fd5b9060005260206000209060040201600091509150508060000154908060010154908060020154908060030154905084565b600080600087815260200190815260200160002060000154146104d9576040517f08c379a00000000000000000000000000000000000000000000000000000000081526004016104d09061144e565b60405180910390fd5b6040518060a001604052808681526020018581526020018481526020018381526020018281525060008087815260200190815260200160002060008201518160000155602082015181600101556040820151816002019080519060200190610542929190610dc3565b5060608201518160030155608082015181600401559050506002600081548092919061056d9061178c565b91905055507fdb7957bbdab90a9610f509a6661b68145748841c2d87803a0d769561e069dc0485858585856040516105a9959493929190611574565b60405180910390a15050505050565b60025481565b60006020528060005260406000206000915090508060000154908060010154908060020180546105ed9061175a565b80601f01602080910402602001604051908101604052809291908181526020018280546106199061175a565b80156106665780601f1061063b57610100808354040283529160200191610666565b820191906000526020600020905b81548152906001019060200180831161064957829003601f168201915b5050505050908060030154908060040154905085565b610684610e49565b6000808381526020019081526020016000206040518060a001604052908160008201548152602001600182015481526020016002820180546106c59061175a565b80601f01602080910402602001604051908101604052809291908181526020018280546106f19061175a565b801561073e5780601f106107135761010080835404028352916020019161073e565b820191906000526020600020905b81548152906001019060200180831161072157829003601f168201915b50505050508152602001600382015481526020016004820154815250509050919050565b606060016000838152602001908152602001600020805480602002602001604051908101604052809291908181526020016000905b828210156107f1578382906000526020600020906004020160405180608001604052908160008201548152602001600182015481526020016002820154815260200160038201548152505081526020019060010190610797565b505050509050919050565b6000806000878152602001908152602001600020600001541415610855576040517f08c379a000000000000000000000000000000000000000000000000000000000815260040161084c9061146e565b60405180910390fd5b6040518060a0016040528086815260200185815260200184815260200183815260200182815250600080878152602001908152602001600020600082015181600001556020820151816001015560408201518160020190805190602001906108be929190610dc3565b5060608201518160030155608082015181600401559050507f3cb74cd8f706625d15e044f57354d82b400523079ba20d254907d748218d7d36856040516109059190611530565b60405180910390a15050505050565b60008080600090505b60016000868152602001908152602001600020805490508110156109be5783600160008781526020019081526020016000208281548110610987577f4e487b7100000000000000000000000000000000000000000000000000000000600052603260045260246000fd5b90600052602060002090600402016000015414156109ab57809150600192506109be565b80806109b69061178c565b91505061091d565b50816109ff576040517f08c379a00000000000000000000000000000000000000000000000000000000081526004016109f6906114ee565b60405180910390fd5b6000600180600087815260200190815260200160002080549050610a2391906116da565b9050808214610b0a57600160008681526020019081526020016000208181548110610a77577f4e487b7100000000000000000000000000000000000000000000000000000000600052603260045260246000fd5b9060005260206000209060040201600160008781526020019081526020016000208381548110610ad0577f4e487b7100000000000000000000000000000000000000000000000000000000600052603260045260246000fd5b9060005260206000209060040201600082015481600001556001820154816001015560028201548160020155600382015481600301559050505b60016000868152602001908152602001600020805480610b53577f4e487b7100000000000000000000000000000000000000000000000000000000600052603160045260246000fd5b6001900381819060005260206000209060040201600080820160009055600182016000905560028201600090556003820160009055505090557f5d921743cde8b7b547e7528e5c84432190f653b2be439b5ff58c117ea6890df68486604051610bbd92919061154b565b60405180910390a15050505050565b6000806000858152602001908152602001600020600001541415610c25576040517f08c379a0000000000000000000000000000000000000000000000000000000008152600401610c1c906114ae565b60405180910390fd5b60005b6001600085815260200190815260200160002080549050811015610cf85784600160008681526020019081526020016000208281548110610c92577f4e487b7100000000000000000000000000000000000000000000000000000000600052603260045260246000fd5b9060005260206000209060040201600001541415610ce5576040517f08c379a0000000000000000000000000000000000000000000000000000000008152600401610cdc906114ce565b60405180910390fd5b8080610cf09061178c565b915050610c28565b506001600084815260200190815260200160002060405180608001604052808681526020018581526020018481526020018381525090806001815401808255809150506001900390600052602060002090600402016000909190919091506000820151816000015560208201518160010155604082015181600201556060820151816003015550507f39bee5153f5184cc59214e67739eb3ec79dd092c37eea3f367225891fa61ba5584848484604051610db594939291906115ce565b60405180910390a150505050565b828054610dcf9061175a565b90600052602060002090601f016020900481019282610df15760008555610e38565b82601f10610e0a57805160ff1916838001178555610e38565b82800160010185558215610e38579182015b82811115610e37578251825591602001919060010190610e1c565b5b509050610e459190610e78565b5090565b6040518060a0016040528060008152602001600081526020016060815260200160008152602001600081525090565b5b80821115610e91576000816000905550600101610e79565b5090565b6000610ea8610ea384611644565b611613565b905082815260208101848484011115610ec057600080fd5b610ecb848285611718565b509392505050565b600082601f830112610ee457600080fd5b8135610ef4848260208601610e95565b91505092915050565b600081359050610f0c81611873565b92915050565b600060208284031215610f2457600080fd5b6000610f3284828501610efd565b91505092915050565b60008060408385031215610f4e57600080fd5b6000610f5c85828601610efd565b9250506020610f6d85828601610efd565b9150509250929050565b600080600080600060a08688031215610f8f57600080fd5b6000610f9d88828901610efd565b9550506020610fae88828901610efd565b945050604086013567ffffffffffffffff811115610fcb57600080fd5b610fd788828901610ed3565b9350506060610fe888828901610efd565b9250506080610ff988828901610efd565b9150509295509295909350565b6000806000806080858703121561101c57600080fd5b600061102a87828801610efd565b945050602061103b87828801610efd565b935050604061104c87828801610efd565b925050606061105d87828801610efd565b91505092959194509250565b60006110758383611343565b60808301905092915050565b600061108c82611684565b61109681856116a7565b93506110a183611674565b8060005b838110156110d25781516110b98882611069565b97506110c48361169a565b9250506001810190506110a5565b5085935050505092915050565b60006110ea8261168f565b6110f481856116b8565b9350611104818560208601611727565b61110d81611862565b840191505092915050565b60006111238261168f565b61112d81856116c9565b935061113d818560208601611727565b61114681611862565b840191505092915050565b600061115e6014836116c9565b91507f50616c6c6574207961207265676973747261646f0000000000000000000000006000830152602082019050919050565b600061119e6015836116c9565b91507f50616c6c6574206e6f20656e636f6e747261646f2e00000000000000000000006000830152602082019050919050565b60006111de6029836116c9565b91507f446973747269627569646f7220696e636f72726563746f20706172612065737460008301527f652070616c6c65742e00000000000000000000000000000000000000000000006020830152604082019050919050565b60006112446014836116c9565b91507f50616c6c6574206e6f20656e636f6e747261646f0000000000000000000000006000830152602082019050919050565b60006112846022836116c9565b91507f494420646520446973747269627569646f7250616c6c6574207961206578697360008301527f74650000000000000000000000000000000000000000000000000000000000006020830152604082019050919050565b60006112ea6021836116c9565b91507f446973747269627569646f7250616c6c6574206e6f20656e636f6e747261646f60008301527f2e000000000000000000000000000000000000000000000000000000000000006020830152604082019050919050565b608082016000820151611359600085018261140e565b50602082015161136c602085018261140e565b50604082015161137f604085018261140e565b506060820151611392606085018261140e565b50505050565b600060a0830160008301516113b0600086018261140e565b5060208301516113c3602086018261140e565b50604083015184820360408601526113db82826110df565b91505060608301516113f0606086018261140e565b506080830151611403608086018261140e565b508091505092915050565b6114178161170e565b82525050565b6114268161170e565b82525050565b600060208201905081810360008301526114468184611081565b905092915050565b6000602082019050818103600083015261146781611151565b9050919050565b6000602082019050818103600083015261148781611191565b9050919050565b600060208201905081810360008301526114a7816111d1565b9050919050565b600060208201905081810360008301526114c781611237565b9050919050565b600060208201905081810360008301526114e781611277565b9050919050565b60006020820190508181036000830152611507816112dd565b9050919050565b600060208201905081810360008301526115288184611398565b905092915050565b6000602082019050611545600083018461141d565b92915050565b6000604082019050611560600083018561141d565b61156d602083018461141d565b9392505050565b600060a082019050611589600083018861141d565b611596602083018761141d565b81810360408301526115a88186611118565b90506115b7606083018561141d565b6115c4608083018461141d565b9695505050505050565b60006080820190506115e3600083018761141d565b6115f0602083018661141d565b6115fd604083018561141d565b61160a606083018461141d565b95945050505050565b6000604051905081810181811067ffffffffffffffff8211171561163a57611639611833565b5b8060405250919050565b600067ffffffffffffffff82111561165f5761165e611833565b5b601f19601f8301169050602081019050919050565b6000819050602082019050919050565b600081519050919050565b600081519050919050565b6000602082019050919050565b600082825260208201905092915050565b600082825260208201905092915050565b600082825260208201905092915050565b60006116e58261170e565b91506116f08361170e565b925082821015611703576117026117d5565b5b828203905092915050565b6000819050919050565b82818337600083830152505050565b60005b8381101561174557808201518184015260208101905061172a565b83811115611754576000848401525b50505050565b6000600282049050600182168061177257607f821691505b6020821081141561178657611785611804565b5b50919050565b60006117978261170e565b91507fffffffffffffffffffffffffffffffffffffffffffffffffffffffffffffffff8214156117ca576117c96117d5565b5b600182019050919050565b7f4e487b7100000000000000000000000000000000000000000000000000000000600052601160045260246000fd5b7f4e487b7100000000000000000000000000000000000000000000000000000000600052602260045260246000fd5b7f4e487b7100000000000000000000000000000000000000000000000000000000600052604160045260246000fd5b6000601f19601f8301169050919050565b61187c8161170e565b811461188757600080fd5b5056fea2646970667358221220c86b0b8292f24457caeefa9c30b4a9f0741cf26ff9aedfe605a87de2c6ef146764736f6c63430008000033",
  "immutableReferences": {},
  "source": "// SPDX-License-Identifier: MIT\r\npragma solidity ^0.8.0;\r\n\r\ncontract PalletRegistry {\r\n    struct Pallet {\r\n        uint256 idPallet;         // ID del pallet\r\n        uint256 idPredio;         // ID del predio\r\n        string producto;          // Nombre del producto\r\n        uint256 fechaCosecha;     // Fecha de cosecha (timestamp)\r\n        uint256 pesoPallet;       // Peso del pallet\r\n    }\r\n\r\n    struct DistribuidorPallet {\r\n        uint256 idDistribuidorPallet;  // ID nico de DistribuidorPallet\r\n        uint256 idPallet;              // ID del pallet asociado\r\n        uint256 idDistribuidor;        // ID del distribuidor\r\n        uint256 pesoEnvio;             // Peso del envo especfico\r\n    }\r\n\r\n    mapping(uint256 => Pallet) public pallets;  // Mapeo de ID de pallet a la estructura Pallet\r\n    mapping(uint256 => DistribuidorPallet[]) public distribuidorPallets;  // Mapeo de ID de pallet a lista de DistribuidorPallet\r\n    uint256 public palletCount;                  // Contador de pallets\r\n\r\n    // Eventos para registro y actualizacin\r\n    event PalletRegistered(\r\n        uint256 idPallet,\r\n        uint256 idPredio,\r\n        string producto,\r\n        uint256 fechaCosecha,\r\n        uint256 pesoPallet\r\n    );\r\n\r\n    event DistribuidorPalletRegistered(\r\n        uint256 idDistribuidorPallet,\r\n        uint256 idPallet,\r\n        uint256 idDistribuidor,\r\n        uint256 pesoEnvio\r\n    );\r\n\r\n    event PalletUpdated(uint256 idPallet);\r\n    event DistribuidorPalletUpdated(uint256 idDistribuidorPallet);\r\n\r\n    // Funcin para registrar un nuevo pallet\r\n    function registerPallet(\r\n        uint256 _idPallet,\r\n        uint256 _idPredio,\r\n        string memory _producto,\r\n        uint256 _fechaCosecha,\r\n        uint256 _pesoPallet\r\n    ) public {\r\n        // Asegurarse de que el pallet no se haya registrado previamente\r\n        require(pallets[_idPallet].idPallet == 0, \"Pallet ya registrado\");\r\n\r\n        // Crear y almacenar el nuevo pallet\r\n        pallets[_idPallet] = Pallet({\r\n            idPallet: _idPallet,\r\n            idPredio: _idPredio,\r\n            producto: _producto,\r\n            fechaCosecha: _fechaCosecha,\r\n            pesoPallet: _pesoPallet\r\n        });\r\n\r\n        palletCount++;\r\n\r\n        // Emitir el evento de registro\r\n        emit PalletRegistered(_idPallet, _idPredio, _producto, _fechaCosecha, _pesoPallet);\r\n    }\r\n\r\n    // Funcin para obtener la informacin de un pallet\r\n    function getPallet(uint256 _idPallet) public view returns (Pallet memory) {\r\n        return pallets[_idPallet];\r\n    }\r\n\r\n    // Funcin para registrar un nuevo DistribuidorPallet asociado a un pallet especfico\r\n    function registerDistribuidorPallet(\r\n        uint256 _idDistribuidorPallet,\r\n        uint256 _idPallet,\r\n        uint256 _idDistribuidor,\r\n        uint256 _pesoEnvio\r\n    ) public {\r\n        // Validar que el pallet existe antes de registrar un DistribuidorPallet\r\n        require(pallets[_idPallet].idPallet != 0, \"Pallet no encontrado\");\r\n\r\n        // Asegurarse de que el ID de DistribuidorPallet no est en uso\r\n        for (uint256 i = 0; i < distribuidorPallets[_idPallet].length; i++) {\r\n            require(distribuidorPallets[_idPallet][i].idDistribuidorPallet != _idDistribuidorPallet, \"ID de DistribuidorPallet ya existe\");\r\n        }\r\n\r\n        // Crear y almacenar el nuevo DistribuidorPallet con el ID proporcionado\r\n        distribuidorPallets[_idPallet].push(DistribuidorPallet({\r\n            idDistribuidorPallet: _idDistribuidorPallet,\r\n            idPallet: _idPallet,\r\n            idDistribuidor: _idDistribuidor,\r\n            pesoEnvio: _pesoEnvio\r\n        }));\r\n\r\n        // Emitir el evento de registro de DistribuidorPallet\r\n        emit DistribuidorPalletRegistered(_idDistribuidorPallet, _idPallet, _idDistribuidor, _pesoEnvio);\r\n    }\r\n\r\n    // Funcin para actualizar un pallet existente\r\n    function updatePallet(\r\n        uint256 _idPallet,\r\n        uint256 _idPredio,\r\n        string memory _producto,\r\n        uint256 _fechaCosecha,\r\n        uint256 _pesoPallet\r\n    ) public {\r\n        // Validar que el pallet existe\r\n        require(pallets[_idPallet].idPallet != 0, \"Pallet no encontrado.\");\r\n\r\n        // Actualizar los datos del pallet\r\n        pallets[_idPallet] = Pallet({\r\n            idPallet: _idPallet,\r\n            idPredio: _idPredio,\r\n            producto: _producto,\r\n            fechaCosecha: _fechaCosecha,\r\n            pesoPallet: _pesoPallet\r\n        });\r\n\r\n        // Emitir el evento de actualizacin\r\n        emit PalletUpdated(_idPallet);\r\n    }\r\n\r\n    // Funcin para actualizar un DistribuidorPallet existente\r\n    function updateDistribuidorPallet(\r\n        uint256 _idDistribuidorPallet,\r\n        uint256 _idPallet,\r\n        uint256 _idDistribuidor,\r\n        uint256 _pesoEnvio\r\n    ) public {\r\n        // Validar que el DistribuidorPallet existe en la lista del pallet\r\n        bool found = false;\r\n        for (uint256 i = 0; i < distribuidorPallets[_idPallet].length; i++) {\r\n            if (distribuidorPallets[_idPallet][i].idDistribuidorPallet == _idDistribuidorPallet) {\r\n                // Asegurarse de que el distribuidor es el correcto\r\n                require(distribuidorPallets[_idPallet][i].idDistribuidor == _idDistribuidor, \"Distribuidor incorrecto para este pallet.\");\r\n\r\n                // Actualizar el peso de envo\r\n                distribuidorPallets[_idPallet][i].pesoEnvio = _pesoEnvio;\r\n                found = true;\r\n\r\n                // Emitir el evento de actualizacin\r\n                emit DistribuidorPalletUpdated(_idDistribuidorPallet);\r\n                break;\r\n            }\r\n        }\r\n\r\n        require(found, \"DistribuidorPallet no encontrado.\");\r\n    }\r\n\r\n    // Funcin para obtener todos los DistribuidorPallets asociados a un pallet\r\n    function getDistribuidorPalletsByPallet(uint256 _idPallet) public view returns (DistribuidorPallet[] memory) {\r\n        return distribuidorPallets[_idPallet];\r\n    }\r\n\r\n        event DistribuidorPalletEliminado(uint256 idDistribuidorPallet, uint256 idPallet);\r\n\r\n    // Funcin para eliminar un DistribuidorPallet por idDistribuidorPallet y idPallet\r\n    function eliminarDistribuidorPallet(uint256 _idPallet, uint256 _idDistribuidorPallet) public {\r\n        // Encontrar el ndice del distribuidor a eliminar\r\n        bool found = false;\r\n        uint256 index;\r\n\r\n        for (uint256 i = 0; i < distribuidorPallets[_idPallet].length; i++) {\r\n            if (distribuidorPallets[_idPallet][i].idDistribuidorPallet == _idDistribuidorPallet) {\r\n                index = i;\r\n                found = true;\r\n                break;\r\n            }\r\n        }\r\n\r\n        require(found, \"DistribuidorPallet no encontrado.\");\r\n\r\n        // Intercambiar el elemento a eliminar con el ltimo y luego hacer pop\r\n        uint256 lastIndex = distribuidorPallets[_idPallet].length - 1;\r\n\r\n        if (index != lastIndex) {\r\n            distribuidorPallets[_idPallet][index] = distribuidorPallets[_idPallet][lastIndex];\r\n        }\r\n        \r\n        distribuidorPallets[_idPallet].pop();\r\n\r\n        // Emitir evento de eliminacin\r\n        emit DistribuidorPalletEliminado(_idDistribuidorPallet, _idPallet);\r\n    }\r\n}\r\n",
  "sourcePath": "C:\\Users\\Smart samy\\mi_proyecto\\contracts\\predio.sol",
  "compiler": {
    "name": "solc",
    "version": "0.8.0+commit.c7dfd78e.Emscripten.clang"
  },
  "schemaVersion": "3.4.16",
  "updatedAt": "2024-11-10T22:54:02.715Z",
  "networkType": "ethereum",
  "devdoc": {
    "kind": "dev",
    "methods": {},
    "version": 1
  },
  "userdoc": {
    "kind": "user",
    "methods": {},
    "version": 1
  }
}