{
  "contractName": "TransportContract",
  "abi": [
    {
      "inputs": [
        {
          "internalType": "address",
          "name": "_cosechaContractAddress",
          "type": "address"
        }
      ],
      "stateMutability": "nonpayable",
      "type": "constructor"
    },
    {
      "inputs": [],
      "name": "nextTransportId",
      "outputs": [
        {
          "internalType": "uint256",
          "name": "",
          "type": "uint256"
        }
      ],
      "stateMutability": "view",
      "type": "function",
      "constant": true
    },
    {
      "inputs": [
        {
          "internalType": "uint256",
          "name": "",
          "type": "uint256"
        }
      ],
      "name": "transports",
      "outputs": [
        {
          "internalType": "uint256",
          "name": "id",
          "type": "uint256"
        },
        {
          "internalType": "string",
          "name": "date",
          "type": "string"
        },
        {
          "internalType": "string",
          "name": "destination",
          "type": "string"
        },
        {
          "internalType": "string",
          "name": "carrier",
          "type": "string"
        },
        {
          "internalType": "enum TransportContract.TransportStatus",
          "name": "status",
          "type": "uint8"
        },
        {
          "components": [
            {
              "internalType": "uint256",
              "name": "id",
              "type": "uint256"
            },
            {
              "internalType": "string",
              "name": "producto",
              "type": "string"
            },
            {
              "internalType": "string",
              "name": "fechaCosecha",
              "type": "string"
            },
            {
              "internalType": "string",
              "name": "ubicacion",
              "type": "string"
            },
            {
              "internalType": "uint256",
              "name": "cantidadLote",
              "type": "uint256"
            },
            {
              "internalType": "uint256",
              "name": "cantidadAgua",
              "type": "uint256"
            },
            {
              "internalType": "string",
              "name": "pesticidasFertilizantes",
              "type": "string"
            },
            {
              "internalType": "string",
              "name": "practicasCultivo",
              "type": "string"
            },
            {
              "internalType": "bool",
              "name": "transportado",
              "type": "bool"
            }
          ],
          "internalType": "struct Cosecha.CosechaData",
          "name": "harvestInfo",
          "type": "tuple"
        }
      ],
      "stateMutability": "view",
      "type": "function",
      "constant": true
    },
    {
      "inputs": [
        {
          "internalType": "uint256",
          "name": "_harvestId",
          "type": "uint256"
        },
        {
          "internalType": "string",
          "name": "_date",
          "type": "string"
        },
        {
          "internalType": "string",
          "name": "_destination",
          "type": "string"
        },
        {
          "internalType": "string",
          "name": "_carrier",
          "type": "string"
        }
      ],
      "name": "registerTransport",
      "outputs": [],
      "stateMutability": "nonpayable",
      "type": "function"
    },
    {
      "inputs": [
        {
          "internalType": "uint256",
          "name": "_id",
          "type": "uint256"
        },
        {
          "internalType": "enum TransportContract.TransportStatus",
          "name": "_nuevoEstado",
          "type": "uint8"
        }
      ],
      "name": "actualizarEstadoTransporte",
      "outputs": [],
      "stateMutability": "nonpayable",
      "type": "function"
    },
    {
      "inputs": [
        {
          "internalType": "uint256",
          "name": "_id",
          "type": "uint256"
        }
      ],
      "name": "getTransportDetails",
      "outputs": [
        {
          "components": [
            {
              "internalType": "uint256",
              "name": "id",
              "type": "uint256"
            },
            {
              "internalType": "string",
              "name": "date",
              "type": "string"
            },
            {
              "internalType": "string",
              "name": "destination",
              "type": "string"
            },
            {
              "internalType": "string",
              "name": "carrier",
              "type": "string"
            },
            {
              "internalType": "enum TransportContract.TransportStatus",
              "name": "status",
              "type": "uint8"
            },
            {
              "components": [
                {
                  "internalType": "uint256",
                  "name": "id",
                  "type": "uint256"
                },
                {
                  "internalType": "string",
                  "name": "producto",
                  "type": "string"
                },
                {
                  "internalType": "string",
                  "name": "fechaCosecha",
                  "type": "string"
                },
                {
                  "internalType": "string",
                  "name": "ubicacion",
                  "type": "string"
                },
                {
                  "internalType": "uint256",
                  "name": "cantidadLote",
                  "type": "uint256"
                },
                {
                  "internalType": "uint256",
                  "name": "cantidadAgua",
                  "type": "uint256"
                },
                {
                  "internalType": "string",
                  "name": "pesticidasFertilizantes",
                  "type": "string"
                },
                {
                  "internalType": "string",
                  "name": "practicasCultivo",
                  "type": "string"
                },
                {
                  "internalType": "bool",
                  "name": "transportado",
                  "type": "bool"
                }
              ],
              "internalType": "struct Cosecha.CosechaData",
              "name": "harvestInfo",
              "type": "tuple"
            }
          ],
          "internalType": "struct TransportContract.Transport",
          "name": "",
          "type": "tuple"
        }
      ],
      "stateMutability": "view",
      "type": "function",
      "constant": true
    }
  ],
  "bytecode": "0x60806040523480156200001157600080fd5b5060405162001c0938038062001c09833981810160405281019062000037919062000095565b806000806101000a81548173ffffffffffffffffffffffffffffffffffffffff021916908373ffffffffffffffffffffffffffffffffffffffff160217905550506200010f565b6000815190506200008f81620000f5565b92915050565b600060208284031215620000a857600080fd5b6000620000b8848285016200007e565b91505092915050565b6000620000ce82620000d5565b9050919050565b600073ffffffffffffffffffffffffffffffffffffffff82169050919050565b6200010081620000c1565b81146200010c57600080fd5b50565b611aea806200011f6000396000f3fe608060405234801561001057600080fd5b50600436106100575760003560e01c806346508e801461005c5780635affeaec1461008c5780638535b672146100aa5780639bae0328146100c6578063f2689313146100fb575b600080fd5b61007660048036038101906100719190611328565b610117565b6040516100839190611755565b60405180910390f35b6100946106b3565b6040516100a19190611777565b60405180910390f35b6100c460048036038101906100bf9190611351565b6106b9565b005b6100e060048036038101906100db9190611328565b610727565b6040516100f296959493929190611792565b60405180910390f35b6101156004803603810190610110919061138d565b610c26565b005b61011f610f0a565b600160008381526020019081526020016000206040518060c0016040529081600082015481526020016001820180546101579061191a565b80601f01602080910402602001604051908101604052809291908181526020018280546101839061191a565b80156101d05780601f106101a5576101008083540402835291602001916101d0565b820191906000526020600020905b8154815290600101906020018083116101b357829003601f168201915b505050505081526020016002820180546101e99061191a565b80601f01602080910402602001604051908101604052809291908181526020018280546102159061191a565b80156102625780601f1061023757610100808354040283529160200191610262565b820191906000526020600020905b81548152906001019060200180831161024557829003601f168201915b5050505050815260200160038201805461027b9061191a565b80601f01602080910402602001604051908101604052809291908181526020018280546102a79061191a565b80156102f45780601f106102c9576101008083540402835291602001916102f4565b820191906000526020600020905b8154815290600101906020018083116102d757829003601f168201915b505050505081526020016004820160009054906101000a900460ff166002811115610348577f4e487b7100000000000000000000000000000000000000000000000000000000600052602160045260246000fd5b6002811115610380577f4e487b7100000000000000000000000000000000000000000000000000000000600052602160045260246000fd5b81526020016005820160405180610120016040529081600082015481526020016001820180546103af9061191a565b80601f01602080910402602001604051908101604052809291908181526020018280546103db9061191a565b80156104285780601f106103fd57610100808354040283529160200191610428565b820191906000526020600020905b81548152906001019060200180831161040b57829003601f168201915b505050505081526020016002820180546104419061191a565b80601f016020809104026020016040519081016040528092919081815260200182805461046d9061191a565b80156104ba5780601f1061048f576101008083540402835291602001916104ba565b820191906000526020600020905b81548152906001019060200180831161049d57829003601f168201915b505050505081526020016003820180546104d39061191a565b80601f01602080910402602001604051908101604052809291908181526020018280546104ff9061191a565b801561054c5780601f106105215761010080835404028352916020019161054c565b820191906000526020600020905b81548152906001019060200180831161052f57829003601f168201915b5050505050815260200160048201548152602001600582015481526020016006820180546105799061191a565b80601f01602080910402602001604051908101604052809291908181526020018280546105a59061191a565b80156105f25780601f106105c7576101008083540402835291602001916105f2565b820191906000526020600020905b8154815290600101906020018083116105d557829003601f168201915b5050505050815260200160078201805461060b9061191a565b80601f01602080910402602001604051908101604052809291908181526020018280546106379061191a565b80156106845780601f1061065957610100808354040283529160200191610684565b820191906000526020600020905b81548152906001019060200180831161066757829003601f168201915b505050505081526020016008820160009054906101000a900460ff161515151581525050815250509050919050565b60025481565b6000600160008481526020019081526020016000209050818160040160006101000a81548160ff0219169083600281111561071d577f4e487b7100000000000000000000000000000000000000000000000000000000600052602160045260246000fd5b0217905550505050565b60016020528060005260406000206000915090508060000154908060010180546107509061191a565b80601f016020809104026020016040519081016040528092919081815260200182805461077c9061191a565b80156107c95780601f1061079e576101008083540402835291602001916107c9565b820191906000526020600020905b8154815290600101906020018083116107ac57829003601f168201915b5050505050908060020180546107de9061191a565b80601f016020809104026020016040519081016040528092919081815260200182805461080a9061191a565b80156108575780601f1061082c57610100808354040283529160200191610857565b820191906000526020600020905b81548152906001019060200180831161083a57829003601f168201915b50505050509080600301805461086c9061191a565b80601f01602080910402602001604051908101604052809291908181526020018280546108989061191a565b80156108e55780601f106108ba576101008083540402835291602001916108e5565b820191906000526020600020905b8154815290600101906020018083116108c857829003601f168201915b5050505050908060040160009054906101000a900460ff16908060050160405180610120016040529081600082015481526020016001820180546109289061191a565b80601f01602080910402602001604051908101604052809291908181526020018280546109549061191a565b80156109a15780601f10610976576101008083540402835291602001916109a1565b820191906000526020600020905b81548152906001019060200180831161098457829003601f168201915b505050505081526020016002820180546109ba9061191a565b80601f01602080910402602001604051908101604052809291908181526020018280546109e69061191a565b8015610a335780601f10610a0857610100808354040283529160200191610a33565b820191906000526020600020905b815481529060010190602001808311610a1657829003601f168201915b50505050508152602001600382018054610a4c9061191a565b80601f0160208091040260200160405190810160405280929190818152602001828054610a789061191a565b8015610ac55780601f10610a9a57610100808354040283529160200191610ac5565b820191906000526020600020905b815481529060010190602001808311610aa857829003601f168201915b505050505081526020016004820154815260200160058201548152602001600682018054610af29061191a565b80601f0160208091040260200160405190810160405280929190818152602001828054610b1e9061191a565b8015610b6b5780601f10610b4057610100808354040283529160200191610b6b565b820191906000526020600020905b815481529060010190602001808311610b4e57829003601f168201915b50505050508152602001600782018054610b849061191a565b80601f0160208091040260200160405190810160405280929190818152602001828054610bb09061191a565b8015610bfd5780601f10610bd257610100808354040283529160200191610bfd565b820191906000526020600020905b815481529060010190602001808311610be057829003601f168201915b505050505081526020016008820160009054906101000a900460ff161515151581525050905086565b60008060009054906101000a900473ffffffffffffffffffffffffffffffffffffffff1673ffffffffffffffffffffffffffffffffffffffff16638f248fa7866040518263ffffffff1660e01b8152600401610c829190611777565b60006040518083038186803b158015610c9a57600080fd5b505afa158015610cae573d6000803e3d6000fd5b505050506040513d6000823e3d601f19601f82011682018060405250810190610cd791906112e7565b90506040518060c00160405280600254815260200185815260200184815260200183815260200160006002811115610d38577f4e487b7100000000000000000000000000000000000000000000000000000000600052602160045260246000fd5b815260200182815250600160006002548152602001908152602001600020600082015181600001556020820151816001019080519060200190610d7c929190610f7e565b506040820151816002019080519060200190610d99929190610f7e565b506060820151816003019080519060200190610db6929190610f7e565b5060808201518160040160006101000a81548160ff02191690836002811115610e08577f4e487b7100000000000000000000000000000000000000000000000000000000600052602160045260246000fd5b021790555060a082015181600501600082015181600001556020820151816001019080519060200190610e3c929190610f7e565b506040820151816002019080519060200190610e59929190610f7e565b506060820151816003019080519060200190610e76929190610f7e565b506080820151816004015560a0820151816005015560c0820151816006019080519060200190610ea7929190610f7e565b5060e0820151816007019080519060200190610ec4929190610f7e565b506101008201518160080160006101000a81548160ff021916908315150217905550505090505060026000815480929190610efe9061194c565b91905055505050505050565b6040518060c001604052806000815260200160608152602001606081526020016060815260200160006002811115610f6b577f4e487b7100000000000000000000000000000000000000000000000000000000600052602160045260246000fd5b8152602001610f78611004565b81525090565b828054610f8a9061191a565b90600052602060002090601f016020900481019282610fac5760008555610ff3565b82601f10610fc557805160ff1916838001178555610ff3565b82800160010185558215610ff3579182015b82811115610ff2578251825591602001919060010190610fd7565b5b5090506110009190611052565b5090565b60405180610120016040528060008152602001606081526020016060815260200160608152602001600081526020016000815260200160608152602001606081526020016000151581525090565b5b8082111561106b576000816000905550600101611053565b5090565b600061108261107d84611840565b61180f565b90508281526020810184848401111561109a57600080fd5b6110a58482856118d8565b509392505050565b60006110c06110bb84611840565b61180f565b9050828152602081018484840111156110d857600080fd5b6110e38482856118e7565b509392505050565b6000815190506110fa81611a76565b92915050565b60008135905061110f81611a8d565b92915050565b600082601f83011261112657600080fd5b813561113684826020860161106f565b91505092915050565b600082601f83011261115057600080fd5b81516111608482602086016110ad565b91505092915050565b6000610120828403121561117c57600080fd5b61118761012061180f565b90506000611197848285016112d2565b600083015250602082015167ffffffffffffffff8111156111b757600080fd5b6111c38482850161113f565b602083015250604082015167ffffffffffffffff8111156111e357600080fd5b6111ef8482850161113f565b604083015250606082015167ffffffffffffffff81111561120f57600080fd5b61121b8482850161113f565b606083015250608061122f848285016112d2565b60808301525060a0611243848285016112d2565b60a08301525060c082015167ffffffffffffffff81111561126357600080fd5b61126f8482850161113f565b60c08301525060e082015167ffffffffffffffff81111561128f57600080fd5b61129b8482850161113f565b60e0830152506101006112b0848285016110eb565b6101008301525092915050565b6000813590506112cc81611a9d565b92915050565b6000815190506112e181611a9d565b92915050565b6000602082840312156112f957600080fd5b600082015167ffffffffffffffff81111561131357600080fd5b61131f84828501611169565b91505092915050565b60006020828403121561133a57600080fd5b6000611348848285016112bd565b91505092915050565b6000806040838503121561136457600080fd5b6000611372858286016112bd565b925050602061138385828601611100565b9150509250929050565b600080600080608085870312156113a357600080fd5b60006113b1878288016112bd565b945050602085013567ffffffffffffffff8111156113ce57600080fd5b6113da87828801611115565b935050604085013567ffffffffffffffff8111156113f757600080fd5b61140387828801611115565b925050606085013567ffffffffffffffff81111561142057600080fd5b61142c87828801611115565b91505092959194509250565b6114418161189d565b82525050565b611450816118c6565b82525050565b61145f816118c6565b82525050565b600061147082611870565b61147a818561187b565b935061148a8185602086016118e7565b61149381611a51565b840191505092915050565b60006114a982611870565b6114b3818561188c565b93506114c38185602086016118e7565b6114cc81611a51565b840191505092915050565b6000610120830160008301516114f06000860182611737565b50602083015184820360208601526115088282611465565b915050604083015184820360408601526115228282611465565b9150506060830151848203606086015261153c8282611465565b91505060808301516115516080860182611737565b5060a083015161156460a0860182611737565b5060c083015184820360c086015261157c8282611465565b91505060e083015184820360e08601526115968282611465565b9150506101008301516115ad610100860182611438565b508091505092915050565b6000610120830160008301516115d16000860182611737565b50602083015184820360208601526115e98282611465565b915050604083015184820360408601526116038282611465565b9150506060830151848203606086015261161d8282611465565b91505060808301516116326080860182611737565b5060a083015161164560a0860182611737565b5060c083015184820360c086015261165d8282611465565b91505060e083015184820360e08601526116778282611465565b91505061010083015161168e610100860182611438565b508091505092915050565b600060c0830160008301516116b16000860182611737565b50602083015184820360208601526116c98282611465565b915050604083015184820360408601526116e38282611465565b915050606083015184820360608601526116fd8282611465565b91505060808301516117126080860182611447565b5060a083015184820360a086015261172a82826114d7565b9150508091505092915050565b611740816118bc565b82525050565b61174f816118bc565b82525050565b6000602082019050818103600083015261176f8184611699565b905092915050565b600060208201905061178c6000830184611746565b92915050565b600060c0820190506117a76000830189611746565b81810360208301526117b9818861149e565b905081810360408301526117cd818761149e565b905081810360608301526117e1818661149e565b90506117f06080830185611456565b81810360a083015261180281846115b8565b9050979650505050505050565b6000604051905081810181811067ffffffffffffffff8211171561183657611835611a22565b5b8060405250919050565b600067ffffffffffffffff82111561185b5761185a611a22565b5b601f19601f8301169050602081019050919050565b600081519050919050565b600082825260208201905092915050565b600082825260208201905092915050565b60008115159050919050565b60008190506118b782611a62565b919050565b6000819050919050565b60006118d1826118a9565b9050919050565b82818337600083830152505050565b60005b838110156119055780820151818401526020810190506118ea565b83811115611914576000848401525b50505050565b6000600282049050600182168061193257607f821691505b60208210811415611946576119456119f3565b5b50919050565b6000611957826118bc565b91507fffffffffffffffffffffffffffffffffffffffffffffffffffffffffffffffff82141561198a57611989611995565b5b600182019050919050565b7f4e487b7100000000000000000000000000000000000000000000000000000000600052601160045260246000fd5b7f4e487b7100000000000000000000000000000000000000000000000000000000600052602160045260246000fd5b7f4e487b7100000000000000000000000000000000000000000000000000000000600052602260045260246000fd5b7f4e487b7100000000000000000000000000000000000000000000000000000000600052604160045260246000fd5b6000601f19601f8301169050919050565b60038110611a7357611a726119c4565b5b50565b611a7f8161189d565b8114611a8a57600080fd5b50565b60038110611a9a57600080fd5b50565b611aa6816118bc565b8114611ab157600080fd5b5056fea2646970667358221220a13ac38e2f8b0cde826b2c1ad694249f6a604c87d20bba34ab9972a300c1784364736f6c63430008000033",
  "immutableReferences": {},
  "source": "// SPDX-License-Identifier: GPL-3.0\r\npragma solidity ^0.8.0;\r\n\r\nimport \"./cosecha.sol\";  // Importa el contrato de cosecha para acceder a sus datos\r\n\r\ncontract TransportContract {\r\n    enum TransportStatus { EnCamino, Entregado, Retrasado } // Enum para los posibles estados\r\n\r\n    struct Transport {\r\n        uint256 id; // ID automtico\r\n        string date;\r\n        string destination;\r\n        string carrier;\r\n        TransportStatus status; // Cambiado a enum para estados\r\n        Cosecha.CosechaData harvestInfo;\r\n    }\r\n\r\n    Cosecha cosechaContract; // Instancia del contrato de cosecha para acceder a sus datos\r\n    mapping(uint256 => Transport) public transports;  // Mapeo para almacenar transportes por ID\r\n    uint256 public nextTransportId; // Contador para el ID automtico\r\n\r\n    // Constructor que establece la direccin del contrato de cosecha\r\n    constructor(address _cosechaContractAddress) {\r\n        cosechaContract = Cosecha(_cosechaContractAddress);\r\n    }\r\n\r\n    // Funcin para registrar un nuevo transporte usando el ID de la cosecha\r\n    function registerTransport(\r\n        uint256 _harvestId, // Cambiado a _harvestId para mayor claridad\r\n        string memory _date, \r\n        string memory _destination, \r\n        string memory _carrier\r\n    ) public {\r\n        // Obtener los detalles de la cosecha desde el contrato de cosecha usando el ID de la cosecha\r\n        Cosecha.CosechaData memory harvestDetails = cosechaContract.obtenerCosecha(_harvestId);\r\n\r\n        // Registrar el transporte junto con los detalles de la cosecha\r\n        transports[nextTransportId] = Transport(nextTransportId, _date, _destination, _carrier, TransportStatus.EnCamino, harvestDetails);\r\n        nextTransportId++; // Incrementar el ID para el prximo transporte\r\n    }\r\n\r\n    // Funcin para actualizar el estado del transporte\r\n    function actualizarEstadoTransporte(uint256 _id, TransportStatus _nuevoEstado) public {\r\n        // Asegrate de que solo los transportistas o entidades autorizadas puedan hacer esto\r\n        Transport storage transporte = transports[_id];\r\n        transporte.status = _nuevoEstado;\r\n    }\r\n\r\n    // Funcin para obtener los detalles de un transporte por ID\r\n    function getTransportDetails(uint256 _id) public view returns (Transport memory) {\r\n        return transports[_id];\r\n    }\r\n}\r\n\r\n",
  "sourcePath": "C:\\Users\\Smart samy\\mi_proyecto\\contracts\\transporte.sol",
  "compiler": {
    "name": "solc",
    "version": "0.8.0+commit.c7dfd78e.Emscripten.clang"
  },
  "schemaVersion": "3.4.16",
  "updatedAt": "2024-11-10T22:54:01.659Z",
  "networkType": "ethereum",
  "devdoc": {
    "kind": "dev",
    "methods": {},
    "version": 1
  },
  "userdoc": {
    "kind": "user",
    "methods": {},
    "version": 1
  }
}